:100000000C94D3010C94B1090C9486090C945B09EF
:100010000C9430090C9405090C94DA080C94AF0880
:100020000C9484080C9404020C9404020C940402B2
:100030000C9404020C94DC090C9404020C94040249
:100040000C9404020C94050B0C9404020C9404020E
:100050000C9404020C9404020C9404020C943A08CC
:100060000C9404020C9404020C9404020C940402F8
:100070000C9404020C9404020C9404020C940402E8
:100080000C94D70A0C9404020C9404020C940402FD
:100090000C9404020C9404020C9404020C940402C8
:1000A0000C9404020C9404020C94A90A0C9404020B
:1000B0000C9404020C9404020C9404020C947B0A29
:1000C0000C9404020C9404020C9404020C94040298
:1000D0000C9404020C9404020C9404020C94040288
:1000E0000C9404020C94E1020C947E100C945A10AF
:1000F0000C94A2030C941C080C94CD020C94CF0F0A
:100100000C94BF020C9405100C94E5020C94311071
:100110000C94FD0F0C944E100C94C3040C94AE027E
:100120000C9425100C9442100C94A6020C94D70247
:100130000C940D100C9472100C9454110C94C50274
:100140000C94E0020C94D40F0C94C4040C94A00200
:100150000C94D3020C94DB030C9466100C94E50F02
:100160000C94D90F0C94C9020C94AA020C94B202FC
:100170000C9419100C94DB020C94BB020C94F10F3C
:100180000C94DC030C94B50200407A10F35A00A0E2
:10019000724E18090010A5D4E80000E87648170050
:1001A00000E40B54020000CA9A3B000000E1F50590
:1001B000000080969800000040420F000000A086DA
:1001C00001000000102700000000E803000000000C
:1001D0006400000000000A000000000001000000B0
:1001E00000002C76D888DC674F0823DFC1DFAE59CA
:1001F000E1B1B796E5E3E453C63AE651997696E85D
:10020000E6C28426EB898C9B62ED407C6FFCEFBCE0
:100210009C9F40F2BAA56FA5F490055A2AF75C930B
:100220006B6CF9676DC11BFCE0E40D47FEF520E641
:10023000B500D0ED902E0300943577050080841E24
:10024000080000204E0A000000C80C333333330F7F
:10025000986E12831141EF8D2114893BE65516CF1C
:10026000FEE6DB18D1844B381BF77C1D901DA4BB28
:10027000E424203284725E228100C9F124ECA1E5DD
:100280003D270200002100240027002A002D003015
:1002900000330001010000040107010A01000022EF
:1002A00000250028002B002E003100340002010040
:1002B00000050108010B0100002000230026002991
:1002C000002C002F0032000001000003010601098C
:1002D0000105050505070508080808020202020ACB
:1002E0000A080804040404010101010101010103D9
:1002F00003030303030303040707070C0C0C0C0C94
:100300000C0C0C0202020206060606060606060B86
:100310000B0B0B0B0B0B0B010210202008081020FD
:100320004010204080020102010804020101020481
:100330000810204080804020100804020180040240
:100340000180402010080402010804020101020497
:100350000810204080010204081020408000000A9C
:100360000B02090C0D0E0807030401000000000039
:10037000000000000000000000000000000000007D
:10038000000000000000000000121110000000003A
:10039000000000000000000000000000000000005D
:1003A00000000000541111241FBECFEFD1E2DEBFC8
:1003B000CDBF00E00CBF12E0A0E0B2E0E2E7F3E363
:1003C00000E00BBF02C007900D92A23AB107D9F727
:1003D00023E0A2EAB2E001C01D92A23AB207E1F71F
:1003E00011E0C3EDD1E000E006C021970109802FA4
:1003F000FE010E94C516C23DD10780E00807A9F79B
:100400000E94330B0C94B7190C940000CF92DF922A
:10041000EF92FF92DC01A03282E0B807D4F5A53B51
:10042000B10514F0A4EBB0E04091880328E830E077
:10043000241B310947FD3395220F331F220F331F31
:100440006901330FEE08FF084091890328E532E087
:10045000241B310947FD3395220F331F220F331F11
:10046000032E000C440B550B2C193D094E095F0956
:10047000B7FF02C0B0E0A0E00E94351424EB30E0EA
:1004800040E050E00E940B14C20ED31EE41EF51E85
:10049000D601E0918703E03380F52091880388E856
:1004A00090E0821B910927FD9395880F991F880F73
:1004B000991FA817B90784F02091890388E592E075
:1004C000821B910927FD9395880F991F880F991F0B
:1004D000A817B9070CF4CD010297880F991F4FB7E1
:1004E000F8942E2F30E0F901EE0FFF1FE20FF31FFB
:1004F000E950FD4F928381834FBFFF90EF90DF90D3
:10050000CF9008958150823108F05AC0E82FF0E072
:100510008827E257FD4F8F4F0C94C516AE02B202EA
:10052000A002A602AA02E002B502BB02BF02C502F7
:10053000C902CD02D302D702E002DB02E102E502EA
:10054000809180008F778093800008958091800053
:100550008F7DF9CF80918000877FF5CF84B58F772D
:1005600084BD089584B58F7DFBCF8091B0008F77D7
:100570008093B00008958091B0008F7DF9CF809175
:1005800090008F77809390000895809190008F7DE8
:10059000F9CF80919000877FF5CF8091A0008F7771
:1005A0008093A00008958091A0008F7DF9CF809165
:1005B000A000877FF5CF809120018F778093200165
:1005C0000895809120018F7DF9CF80912001877F50
:1005D000F5CFCF93DF93282F30E0F901E35AFC4F9A
:1005E0008491F901E95EFC4FD491F901EF52FD4F7E
:1005F000C491CC23A1F081110E948202EC2FF0E083
:10060000EE0FFF1FE954FD4FA591B491EC91ED233E
:1006100081E090E009F480E0DF91CF91089580E0DF
:1006200090E0FACF1F93CF93DF93282F30E0F901AA
:10063000E35AFC4F8491F901E95EFC4FD491F90132
:10064000EF52FD4FC491CC23A9F0162F81110E94C7
:100650008202EC2FF0E0EE0FFF1FE356FD4FA59155
:10066000B4918FB7F894EC91111108C0D095DE23A6
:10067000DC938FBFDF91CF911F910895DE2BF8CFD0
:10068000CF93DF9390E0FC01E95EFC4F24918F5201
:100690009D4FFC0184918823D1F090E0880F991F31
:1006A000FC01ED57FD4FA591B491FC01E356FD4FC0
:1006B000C591D491623071F49FB7F8943C91822F28
:1006C000809583238C93E8812E2B28839FBFDF9115
:1006D000CF9108958FB7F894EC912E2B2C938FBF68
:1006E000F6CF3FB7F8948091F3029091F402A09175
:1006F000F502B091F60226B5A89B05C02F3F19F070
:100700000196A11DB11D3FBFBA2FA92F982F882791
:10071000BC01CD01620F711D811D911D42E0660F6C
:10072000771F881F991F4A95D1F708952FB7F8941E
:100730006091EF027091F0028091F1029091F202CB
:100740002FBF08950F931F930E949603AB01BC0126
:100750008091A6029091A702A091A802B091A9024F
:100760008A019B01081B190B2A0B3B0BD901C801FD
:1007700089379105A105B105D8F08091A202909129
:10078000A302A091A402B091A5020196A11DB11DE2
:100790008093A2029093A302A093A402B093A50217
:1007A0004093A6025093A7026093A8027093A902F7
:1007B0001F910F9108950895AF92BF92CF92DF924B
:1007C000EF92FF920F931F93CF93DF936C017B0106
:1007D0008B01040F151FEB015E01AE18BF08C01797
:1007E000D10759F06991D601ED91FC910190F0810A
:1007F000E02DC6011995892B79F7C501DF91CF91BD
:100800001F910F91FF90EF90DF90CF90BF90AF902E
:100810000895AF92BF92CF92DF92EF92FF920F9323
:100820001F93CF93DF936B017A01EC01CC53DD4F23
:1008300028813CE0389F8001399F100D1124A09041
:10084000C302B12C27FF1FC0FB01118210828881D7
:100850008F5F888388819801280F311D87FD3A9525
:10086000F6012A153B051CF488818C30C4F1808187
:100870009181049680349C4908F473C0F60180810C
:100880009181049670C088819801280F311D87FDE1
:100890003A952A153B05DCF68881A801480F511DC1
:1008A00087FD5A95FA01EE0FFF1FE40FF51FE9507F
:1008B000FD4F808186FFCBCF8881F801E80FF11DC5
:1008C00087FDFA95CF01EE0FFF1FE80FF91FE950E2
:1008D000FD4F808160E08F730E941203B8CF80814A
:1008E00091812881A801420F511D27FD5A959A0137
:1008F000FA01EE0FFF1FE20FF31FE950FD4F2181B8
:100900003281820F931FF701918380838881980140
:10091000280F311D87FD3A95F901EE0FFF1FE20FF9
:10092000F31FE950FD4F808186FF22C08881080FA8
:10093000111D87FD1A95F801EE0FFF1FE00FF11F43
:10094000E950FD4F808161E08F73DF91CF911F915E
:100950000F91FF90EF90DF90CF90BF90AF900C94ED
:10096000120380E49CE9F701918380838FEF8883F1
:10097000DF91CF911F910F91FF90EF90DF90CF907B
:10098000BF90AF900895089590E080E008954F9251
:100990005F926F927F92AF92BF92CF92DF92EF926F
:1009A000FF920F931F93CF938C015B018091000204
:1009B0008C3289F08F3F09F451C0CF911F910F9174
:1009C000FF90EF90DF90CF90BF90AF907F906F90AF
:1009D0005F904F900895E2E8F2E0C491C7FDEDCF3B
:1009E00061E08CE20E9440032801712C612CCC2331
:1009F000F1F0980150E040E0C23009F003C1280155
:100A00003A0160E970ED83E090E00E940B14690107
:100A10007A0181E0C81AD108E108F10893E08FEF6C
:100A2000C816D104E104F10409F00CF49EC168E495
:100A300078EE81E090E0A30192010E940B1469011D
:100A40007A0181E0C81AD108E108F10894E0C111E7
:100A50008CC185B5887F836085BDE9C08CE28093B9
:100A60000002E2E8F2E0C4918C2FCF3F09F4A5CF59
:100A7000C23009F468C060F4CC2379F1C13009F4C4
:100A800044C087FD9ACF61E08CE20E944003B1CF61
:100A9000C43009F499C008F478C0C53091F71092B9
:100AA0002001109221018091210188608093210111
:100AB00080912101816080932101EDEFF2E0E491CA
:100AC000F0E0EE0FFF1FE356FD4F85919491E3E4B4
:100AD000F3E0E491E093AA0283CF14BC15BC84B583
:100AE000826084BD85B5816085BDEDEFF2E0E49163
:100AF000F0E0EE0FFF1FE356FD4F85919491E3E484
:100B0000F3E0E491E093AE026BCF1092800010927C
:100B100081008091810088608093810080918100B4
:100B2000816080938100EDEFF2E0E491F0E0EE0F60
:100B3000FF1FE356FD4F85919491E3E4F3E0E491C8
:100B4000E093AD024DCF1092B0001092B1008091B1
:100B5000B00082608093B0008091B100816080938A
:100B6000B100EDEFF2E0E491F0E0EE0FFF1FE3568D
:100B7000FD4F859194919093C9028093C802E3E45C
:100B8000F3E0E491E093CA022BCF10929000109210
:100B900091008091910088608093910080919100F4
:100BA000816080939100EDEFF2E0E491F0E0EE0FD0
:100BB000FF1FE356FD4F85919491E3E4F3E0E49148
:100BC000E093AC02C3E00CCF1092A0001092A10001
:100BD0008091A10088608093A1008091A100816034
:100BE0008093A100EDEFF2E0E491F0E0EE0FFF1F43
:100BF000E356FD4F85919491E3E4F3E0E491E093B3
:100C0000AB02EECE60E072E18AE790E00E940B1446
:100C100069017A0181E0C81AD108E108F108C13000
:100C200071F580918100887F8160809381009801B7
:100C3000220F331FD5010E945F1428EE33E040E0FD
:100C400050E00E943D14C23009F443C00CF075C05E
:100C5000CC2381F1C13009F0B0CED0928900C0928E
:100C600088002093BB023093BC024093BD02509396
:100C7000BE0280916F00826080936F009ECEC33071
:100C800039F480919100887F816080939100CFCF6B
:100C9000C43039F48091A100887F81608093A100E5
:100CA000C6CFC53021F680912101887F8160809375
:100CB0002101BDCFC7BC2093BF023093C002409337
:100CC000C1025093C20280916E00826080936E00D8
:100CD00074CEC092B3002093CB023093CC024093E9
:100CE000CD025093CE02809170008260809370009C
:100CF00064CED0929900C09298002093B7023093AE
:100D0000B8024093B9025093BA0280917100826098
:100D10008093710052CED092A900C092A800209377
:100D2000B3023093B4024093B5025093B60280915F
:100D3000720082608093720040CEC43061F3CCF2C6
:100D4000C53009F03ACED0922901C09228012093F3
:100D5000AF023093B0024093B1025093B20280913F
:100D6000730082608093730028CE8091B100887FE9
:100D7000892B8093B1005BCFFC0101900020E9F743
:100D80003197AF01481B590BBC018AE893E00C94E2
:100D9000DC03CF93DF93EC0160E08E810E941203AD
:100DA00061E08E810E94120360E08E810E94120336
:100DB0008BE891E00197F1F7DF91CF910895CF9201
:100DC000DF92EF92FF920F931F93CF93DF936C010B
:100DD0007C0187E0E80EF11CD0E0C0E0062F10E0B7
:100DE000B8010C2E02C0759567950A94E2F7617000
:100DF000F70181917F010E9412032196C430D10531
:100E000079F7C601DF91CF911F910F91FF90EF907D
:100E1000DF90CF900C94C906CF92DF92EF92FF92B1
:100E20000F931F93CF93DF93EC01F62E642F8C81E9
:100E30000E9412038D818F3F19F060E00E9412031F
:100E40000F2D10E08F8584FF25C06E0187E0C80E4E
:100E5000D11CF12CE12CB8010E2C02C075956795C0
:100E60000A94E2F76170F60181916F010E9412030A
:100E7000FFEFEF1AFF0A88E0E816F10461F7CE01F0
:100E8000DF91CF911F910F91FF90EF90DF90CF9066
:100E90000C94C906B80184E0759567958A95E1F7C9
:100EA000CE010E94DF066F2DCE01DF91CF911F9101
:100EB0000F91FF90EF90DF90CF900C94DF0640E011
:100EC000682F8AE893E00C940C0781E00E945F078A
:100ED0008BE39FE10197F1F70895CF93DF93823081
:100EE00029F49091990398609093990380939D03BE
:100EF00010929E0380E480939F0380E18093A0037F
:100F000080E58093A10361E080918E030E944003FD
:100F100080918F038F3F19F061E00E94400361E0F0
:100F2000809190030E944003CAE8D3E09E012A58B2
:100F300033408091990384FD0BC084E090E02196BA
:100F40002817390744F461E08E810E944003EECFF8
:100F500088E090E0F4CF8BE39DE00197F1F760E04B
:100F600080918E030E94120360E0809190030E94A2
:100F7000120380918F038F3F19F060E00E941203EB
:100F80008091990384FD34C063E08AE893E00E9475
:100F9000DF06CBE4D6E4CE010197F1F763E08AE8FF
:100FA00093E00E94DF062197F1F763E08AE893E07F
:100FB0000E94DF0683E592E00197F1F762E08AE89C
:100FC00093E00E94DF068091990380620E945F0790
:100FD00084E080939A038CE00E945F070E9465077B
:100FE00082E080939B0386E0DF91CF910C945F07B2
:100FF00080620E945F078BE496E40197F1F780918D
:10100000990380620E945F0783E592E00197F1F700
:101010008091990380620E945F07D5CF90919D03D4
:10102000891710F08FEF890FE82FF0E0E657FC4F9B
:10103000848980680C945F0741E00E940C0781E07E
:1010400090E008951092E0021092E1021092E20204
:101050001092E3021092E40261E085E00E944003F6
:1010600060E085E00E9412036AEF70E088E592E09C
:101070000C94C7041F920F920FB60F9211242F9356
:101080003F938F939F93AF93BF938091EF02909183
:10109000F002A091F102B091F2023091EE0223E051
:1010A000230F2D3758F50196A11DB11D2093EE0297
:1010B0008093EF029093F002A093F102B093F202BA
:1010C0008091F3029091F402A091F502B091F602A2
:1010D0000196A11DB11D8093F3029093F402A09399
:1010E000F502B093F602BF91AF919F918F913F911E
:1010F0002F910F900FBE0F901F90189526E8230F89
:101100000296A11DB11DD2CF1F920F920FB60F9262
:1011100011240BB60F922F933F934F935F936F93CE
:101120007F938F939F93AF93BF93EF93FF93E09140
:101130000F02F09110021995FF91EF91BF91AF91BD
:101140009F918F917F916F915F914F913F912F91DF
:101150000F900BBE0F900FBE0F901F9018951F920F
:101160000F920FB60F9211240BB60F922F933F934D
:101170004F935F936F937F938F939F93AF93BF939F
:10118000EF93FF93E0910D02F0910E021995FF91FC
:10119000EF91BF91AF919F918F917F916F915F91EF
:1011A0004F913F912F910F900BBE0F900FBE0F905C
:1011B0001F9018951F920F920FB60F9211240BB625
:1011C0000F922F933F934F935F936F937F938F93E0
:1011D0009F93AF93BF93EF93FF93E0910302F0913E
:1011E00004021995FF91EF91BF91AF919F918F915B
:1011F0007F916F915F914F913F912F910F900BBE17
:101200000F900FBE0F901F9018951F920F920FB660
:101210000F9211240BB60F922F933F934F935F932E
:101220006F937F938F939F93AF93BF93EF93FF93AE
:10123000E0910102F09102021995FF91EF91BF91A7
:10124000AF919F918F917F916F915F914F913F915E
:101250002F910F900BBE0F900FBE0F901F901895FF
:101260001F920F920FB60F9211240BB60F922F936D
:101270003F934F935F936F937F938F939F93AF931E
:10128000BF93EF93FF93E0910B02F0910C0219953D
:10129000FF91EF91BF91AF919F918F917F916F914E
:1012A0005F914F913F912F910F900BBE0F900FBE0A
:1012B0000F901F9018951F920F920FB60F92112446
:1012C0000BB60F922F933F934F935F936F937F9340
:1012D0008F939F93AF93BF93EF93FF93E091090296
:1012E000F0910A021995FF91EF91BF91AF919F91F3
:1012F0008F917F916F915F914F913F912F910F90BF
:101300000BBE0F900FBE0F901F9018951F920F925B
:101310000FB60F9211240BB60F922F933F934F935A
:101320005F936F937F938F939F93AF93BF93EF934D
:10133000FF93E0910702F09108021995FF91EF9158
:10134000BF91AF919F918F917F916F915F914F91DD
:101350003F912F910F900BBE0F900FBE0F901F90DB
:1013600018951F920F920FB60F9211240BB60F9281
:101370002F933F934F935F936F937F938F939F939D
:10138000AF93BF93EF93FF93E0910502F0910602B4
:101390001995FF91EF91BF91AF919F918F917F919F
:1013A0006F915F914F913F912F910F900BBE0F90D6
:1013B0000FBE0F901F9018951F920F920FB60F92AD
:1013C00011240BB60F922F933F934F935F936F931C
:1013D0007F938F939F93AF93BF93EF93FF938091EE
:1013E000CB029091CC02A091CD02B091CE02892B7C
:1013F0008A2B8B2BE1F19091CA02E091C802F09107
:10140000C9028081892780838091CB029091CC0290
:10141000A091CD02B091CE02181619061A061B062D
:101420009CF48091CB029091CC02A091CD02B0911E
:10143000CE020197A109B1098093CB029093CC020F
:10144000A093CD02B093CE02FF91EF91BF91AF91E7
:101450009F918F917F916F915F914F913F912F91CC
:101460000F900BBE0F900FBE0F901F90189580919C
:101470000002E2E8F2E0E4919FEF90930002E23094
:10148000E9F040F4EE2389F0E13091F060E00E9451
:101490001203DACFE43049F110F1E530B9F7909159
:1014A00073009D7F90937300F1CF10926E00EECF8A
:1014B00090916F009D7F90936F00E8CF90917000A6
:1014C0009D7F9093700091E09093B0009091B10057
:1014D000987F94609093B1001092B300D7CF909111
:1014E00071009D7F90937100D1CF909172009D7F8C
:1014F00090937200CBCF1F920F920FB60F921124D0
:101500000BB60F922F933F934F935F936F937F93FD
:101510008F939F93AF93BF93EF93FF9348E251E074
:1015200064E271E090E080E00E940904FF91EF9195
:10153000BF91AF919F918F917F916F915F914F91EB
:101540003F912F910F900BBE0F900FBE0F901F90E9
:1015500018951F920F920FB60F9211240BB60F928F
:101560002F933F934F935F936F937F938F939F93AB
:10157000AF93BF93EF93FF9348EA50E064EA70E0C3
:1015800083E090E00E940904FF91EF91BF91AF9139
:101590009F918F917F916F915F914F913F912F918B
:1015A0000F900BBE0F900FBE0F901F9018951F92BB
:1015B0000F920FB60F9211240BB60F922F933F93F9
:1015C0004F935F936F937F938F939F93AF93BF934B
:1015D000EF93FF9348E950E064E970E082E090E027
:1015E0000E940904FF91EF91BF91AF919F918F915C
:1015F0007F916F915F914F913F912F910F900BBE13
:101600000F900FBE0F901F9018951F920F920FB65C
:101610000F9211240BB60F922F933F934F935F932A
:101620006F937F938F939F93AF93BF93EF93FF93AA
:1016300048E850E064E870E081E090E00E9409042E
:10164000FF91EF91BF91AF919F918F917F916F919A
:101650005F914F913F912F910F900BBE0F900FBE56
:101660000F901F901895CF93DF93CDB7DEB7A89753
:101670000FB6F894DEBF0FBECDBF789484B58260FC
:1016800084BD84B5816084BD85B5826085BD85B526
:10169000816085BD80916E00816080936E001092A4
:1016A000810080918100826080938100809181001F
:1016B00081608093810080918000816080938000B0
:1016C0008091B10084608093B1008091B00081600E
:1016D0008093B0008091910082608093910080910E
:1016E000910081608093910080919000816080934F
:1016F00090008091A10082608093A1008091A10060
:1017000081608093A1008091A00081608093A000FF
:10171000809121018260809321018091210181606B
:10172000809321018091200181608093200180912C
:101730007A00846080937A0080917A00826080933E
:101740007A0080917A00816080937A0080917A009B
:10175000806880937A001092C10062E086E10E9466
:10176000400362E088E10E94400362E08AE10E9457
:10177000400362E08CE10E94400362E08EE10E943F
:10178000400362E080E20E94400362E082E20E9445
:10179000400362E082E00E94400361E085E00E9435
:1017A000400361E088E20E94400361E08AE20E9417
:1017B000400361E08CE20E94400380918703803304
:1017C00008F052C061E086E00E94400380918703E8
:1017D000282F30E0F901EE0FFF1FE20FF31FE95051
:1017E000FD4F9081907C96609083109288031092B8
:1017F00089032CE0622F0E94A516829FB00111245C
:1018000030E020E0AB01420F531FFA01EE0FFF1F43
:10181000E40FF51FE950FD4F908196FD17C02F5F33
:101820003F4F2C30310571F7813009F089C110929A
:10183000800082E0809381001092850010928400E5
:10184000B19A80916F00826080936F00E09187036E
:101850008E2F90E0FC01EE0FFF1FE80FF91FE950FB
:10186000FD4F80818064808390E080E00E940602CA
:1018700082EA93E0909302028093010280916A00D1
:101880008C7F826080936A00EC9A82E00E946D07F0
:1018900083E392E00E94BC0681E00E940E0883E48C
:1018A00092E00E94BC0661E08AE20E9412030E945C
:1018B00071034B015C018CEDC82E85E0D82EE12C24
:1018C000F12C0E947103681979098A099B09683E05
:1018D000734081059105A8F321E0C21AD108E108FF
:1018E000F10838EE830E33E0931EA11CB11CC11425
:1018F000D104E104F10429F70E946507CE01429664
:101900009CA38BA3FE0131961F010E949603C090F9
:10191000CF02D090D002E090D102F090D2026C19A8
:101920007D098E099F09643B710581059105B0F021
:1019300082E20E94E902892B09F02EC18091E00227
:10194000882361F00E9422080E9496036093CF02D0
:101950007093D0028093D1029093D2020E9496039A
:101960006B017C018091D3029091D402A091D502A9
:10197000B091D602A7019601281B390B4A0B5B0BCD
:10198000CA01B9010E94811520E030E04AE754E421
:101990000E94E0142B013C012DEC3CEC4CEC5DE38F
:1019A0000E94DB1487FD62C0C092D302D092D402A1
:1019B000E092D502F092D60280917B00877F8093DF
:1019C0007B0080E480937C0080917A008064809327
:1019D0007A0080917A0086FDFCCF6091780070914A
:1019E0007900072E000C880B990B0E94831520E0CC
:1019F00030EC4FE754E40E94E01420E030E040EA8D
:101A000052E40E94381620E030E040E252E40E94A6
:101A10006F146093110270931202809313029093DB
:101A200014022091DF0230E0AAE5B0E00E945F14CA
:101A30002FE030E040E050E00E940B14C9010E940A
:101A400006021091E002612F88E20E94120361E019
:101A500061278AE20E941203111164C161E085E0EE
:101A60000E94400360E085E00E9412030E949603FA
:101A7000C090EA02D090EB02E090EC02F090ED0210
:101A80006C197D098E099F096C32714081059105A1
:101A900008F44EC00E9496036093EA027093EB0232
:101AA0008093EC029093ED028091E502811141C395
:101AB0006091E1027091E2028091E3029091E40270
:101AC0008E010E5E1F4F21E044E00E949C1180E0D9
:101AD0000E940E0880E592E00E94BC06C8010E94A8
:101AE000BC0685E592E00E94BC0681E00E940E08DB
:101AF0008091E00281111AC38CE292E09F938F9350
:101B00008091DF021F928F932CE532E03F932F9359
:101B10003F922F920E94E116C1010E94BC0687E904
:101B200092E00E94BC060FB6F894DEBF0FBECDBF98
:101B300080E090E0892B09F4E8CE0E940000E2CE1C
:101B4000823061F410929000809391001092950081
:101B50001092940088BB8093710078CE833069F432
:101B60001092A00082E08093A1001092A500109234
:101B7000A40089BB8093720069CE811167CE109258
:101B8000200182E08093210110922501109224010E
:101B90008ABB809373005ACE86E10E94E902892BAA
:101BA00051F58091E0028111CDCE81E08093E00279
:101BB00020E030E040E85FE36091E1027091E202F2
:101BC0008091E3029091E4020E94DB1487FF0CC035
:101BD00080E090E0A0E8BFE38093E1029093E2020E
:101BE000A093E302B093E40268E770E08CED95E027
:101BF0000E94C704A9CE88E10E94E902892B09F559
:101C00008091E0028823E9F020E030E040E05FE3EB
:101C10006091E1027091E2028091E3029091E4020E
:101C20000E946F146B017C0120E030E040E851E439
:101C30000E94DB141816F4F46CE370E080ED97E07A
:101C4000D7CF8AE10E94E902892BE9F08CE10E945A
:101C5000E902892B09F440C08EE10E94E902892B38
:101C600009F043C08091DF02882389F1815080937D
:101C7000DF022DC0C092E102D092E202E092E302C4
:101C8000F092E402D9CF8091E0028823F9F220E0BB
:101C900030E040E05FE36091E1027091E202809108
:101CA000E3029091E4020E946E146B017C0120E03B
:101CB00030E040E05FE30E94331687FD08C0C09229
:101CC000E102D092E202E092E302F092E4026CE3DD
:101CD00070E080EB94E08CCF8091DF028F3008F0D1
:101CE000ABCF8F5F8093DF02A7CF80E20E94E90233
:101CF000892B09F033CE8091E50290E0019663E0F4
:101D000070E00E94B1168093E5020E9496036093F2
:101D1000CF027093D0028093D1029093D2020E949E
:101D200065071CCE20E030E040E85DE36091E10211
:101D30007091E2028091E3029091E4020E943816D1
:101D400020E030E04FE753E40E9438160E9452151D
:101D5000162F61E085E00E9440031111FBC060E096
:101D600085E00E94120320E030E04AE754E4C3011A
:101D7000B2010E9438160E945215C090E602D0901F
:101D8000E702E090E802F090E902DC01CB018C0D63
:101D90009D1DAE1DBF1D8093E6029093E702A093A8
:101DA000E802B093E9028090E1029090E202A090F4
:101DB000E302B090E402A5019401C301B2010E94C4
:101DC000381620E030E041E655E40E94E0149B0123
:101DD000AC016091DB027091DC028091DD02909198
:101DE000DE020E946F146093DB027093DC0280932A
:101DF000DD029093DE0220E030E0A901C501B401CC
:101E00000E94DB1420E030E0A90118160CF061C03C
:101E100027E635E545E851E4C501B4010E943816CE
:101E20006B017C016091DF0270E090E080E00E9435
:101E3000831520E030E048EC52E40E94E0146DA3EA
:101E40007EA38FA398A720E030E040EE50E4C501C8
:101E5000B4010E94DB1487FF54C12DEC3CEC4CEC28
:101E60005DE3C701B6010E94381620E030E040E68D
:101E700050E40E946F144B015C0126E636E646EE04
:101E80005FE3C701B6010E9438162DA13EA14FA104
:101E900058A50E9438169B01AC01C501B4010E94EF
:101EA0006F1420911102309112024091130250914F
:101EB00014020E94381620E030E040EA50E40E940C
:101EC000381620E030E04AE754E40E94E0149B0119
:101ED000AC01C301B2010E94381620E030E040E7B7
:101EE00052E40E94E0142091D7023091D802409130
:101EF000D9025091DA020E946F146093D702709356
:101F0000D8028093D9029093DA02C0901502D09043
:101F10001602E0901702F0901802A70196010E94A5
:101F2000331687FDA3CD60E971E084EC99E00E944F
:101F3000C70420E030E046E953E4C701B6010E943F
:101F40006F1460931502709316028093170290939A
:101F500018028CCD1F3F11F461E002CFE2E6F3E0FE
:101F60008491EFEFE80FE23108F0C8C0F0E0882775
:101F7000E354F04F8F4F0C94C516CF0FD40FD90FE9
:101F8000E50FF10F7E10FD0F05100D101910251033
:101F9000311042104E107E105A106610721084B527
:101FA000806884BD17BDDFCE84B5806284BD18BD56
:101FB000DACE80918000806880938000812F90E04D
:101FC0009093890080938800CECE809180008062BB
:101FD00080938000812F90E090938B0080938A0003
:101FE000C2CE80918000886080938000812F90E035
:101FF00090938D0080938C00B6CE8091B000806865
:102000008093B0001093B300AECE8091B000806298
:102010008093B0001093B400A6CE809190008068A9
:1020200080939000812F90E0909399008093980086
:102030009ACE80919000806280939000812F90E0F2
:1020400090939B0080939A008ECE80919000886040
:1020500080939000812F90E090939D0080939C004E
:1020600082CE8091A00080688093A0008091A00023
:102070008F7B8093A000812F90E09093A9008093A4
:10208000A80071CE8091A00080628093A000812F73
:1020900090E09093AB008093AA0065CE8091A00061
:1020A00088608093A000812F90E09093AD00809392
:1020B000AC0059CE80912001806880932001812F4F
:1020C00090E090932901809328014DCE80912001CA
:1020D000806280932001812F90E090932B01809368
:1020E0002A0141CE80912001886080932001812FB8
:1020F00090E090932D0180932C0135CE17FD2CCFCD
:102100002ECE2DEC3CEC4CE45EE3C701B6010E9400
:10211000381620E030E040E650E40E946F144B0196
:102120005C0126E636E646E65FE3ABCE85E292E06A
:10213000E5CC813009F067C0C090E602D090E7029C
:10214000E090E802F090E902C701B60128EE33E022
:1021500040E050E00E943D1449015A01CA01B90112
:102160002CE330E040E050E00E943D149F938F93B9
:102170007F936F93C501B40120E13EE040E050E061
:102180000E943D142CE330E040E050E00E943D14FA
:102190005F934F933F932F93C701B60120E83EEE24
:1021A00046E350E00E943D145F934F933F932F937B
:1021B000EAE6F2E0FF93EF933CA13F934BA14F93EC
:1021C0000E94E11680E00E940E08CE0142960E9415
:1021D000BC066091DB027091DC028091DD0290917F
:1021E000DE02810122E045E00E949C1181E00E9414
:1021F0000E0883E892E00E94BC06C1010E94BC0662
:1022000089E892E08ECC6091D7027091D8028091DB
:10221000D9029091DA028E010E5E1F4F21E045E057
:102220000E949C1180E00E940E088EE892E00E94BD
:10223000BC06C8010E94BC0684E992E00E94BC066C
:102240002091D7023091D8024091D9025091DA0200
:1022500060911502709116028091170290911802F8
:102260000E946E146B017C0120E030E0A9010E9405
:10227000DB1487FF03C0C12CD12C7601810121E042
:1022800045E0C701B6010E949C1181E00E940E0842
:102290008AE992E00E94BC06C1010E94BC0687E95F
:1022A00092E00E94BC0644CCCF9310928D03109212
:1022B0008C038DE192E090938B0380938A0388E0F6
:1022C00080938E03CFEFC0938F0389E080939003B8
:1022D0008AE0809391038BE0809392038CE080935B
:1022E00093038DE0809394031092950310929603CC
:1022F00010929703109298031092990381E00E9424
:102300006D078091C3028033A0F491E0980F909301
:10231000C3028093870390E0FC01EE0FFF1FE80FDC
:10232000F91FE950FD4F88EB9BE092838183CF91A9
:102330000895C0938703FBCFEF920F931F93CF9322
:10234000DF93E80134E047FD34E1042E000C550B27
:1023500057FF03C0519541955109E32E022F242FB9
:10236000AE010E94BA11CE01DF91CF911F910F9162
:10237000EF9008958F929F92AF92BF92CF92DF928B
:10238000EF92FF920F931F93CF93DF9300D000D073
:1023900000D0CDB7DEB76A01F22EB02E102FFBE3CE
:1023A000AF2EA01608F41BE31F5F012F27E0AE013C
:1023B0004F5F5F4F0E943313BC018981982F997042
:1023C000913009F44EC09BE2E1FC04C09E2D917057
:1023D000E0FC49C05E2D5071E82FE87083FF55C0C6
:1023E00084E0911101C083E0EF2DE81B8F1508F008
:1023F000E0E0D6018E2F20E25523C9F1992329F080
:10240000D6019C93C60101966C0196012D5F3F4F4A
:10241000E2FE33C08EE4D6018C9391E411969C9336
:10242000119712968C93D9018E2F90E281112AC0B8
:10243000E20FF32FF11D10828EEF9FEF29960FB65A
:10244000F894DEBF0FBECDBFDF91CF911F910F91EA
:10245000FF90EF90DF90CF90BF90AF909F908F90C4
:1024600008959DE2B7CF90E2B5CF2D9381508111B1
:10247000FCCFCE0ED11CE0E0C1CF8EE6D6018C930E
:1024800091E6CCCF9D938150D1CF482F447082FFED
:102490003DC084E0911101C083E08F1510F4EF2D51
:1024A000E81BD6018E2F20E2552309F1992329F04C
:1024B000D6019C93C60101966C0196012D5F3F4F9A
:1024C000E2FE1BC089E4D6018C938EE411968C93B6
:1024D000119786E412968C93D9018E2F90E288236F
:1024E00009F4A6CF9D938150FACF2D93815081118D
:1024F000FCCFCE0ED11CE0E0D9CF89E6D6018C937B
:102500008EE611968C93119786E6E4CF9B0177FFB8
:1025100002C030E020E0A1E0B0E0911102C0B0E0E4
:10252000A0E0F9013196AE0FBF1F8B2C912CBB2080
:1025300009F461C05401EFEFAE1ABE0AAA0DBB1D2B
:10254000FA161B0619F014F04F2D4A1B511188C0C2
:10255000E3FC59C07601A42FB0E2A1114FC0C40E14
:10256000D11C992309F45BC040E0D6011196F60115
:1025700090836D01552309F448C0012F060F9A81FD
:10258000582F507184FF03C0913309F40150101685
:102590000CF047C0093008F008E0EEE2FE2E5B01C7
:1025A000A01AB10885019194819491082F3F3207B8
:1025B00029F4D601FC92F60131966F016217730778
:1025C00094F1021713077CF5DB01A21BB30BAA24BD
:1025D000A394B12CAC0EBD1EAA0DBB1D11968C91FF
:1025E00021503109D601119628153905F4F0F6016C
:1025F00080836D01DBCFB12CA12CA0CFF701B1936B
:102600007F01A150AACF9111B0CFD601942F50E3F2
:1026100002C05D9391509111FCCFC40ED11C40E0DB
:10262000ACCF01E0BACF80E3DBCF6217730731F4A0
:10263000963388F4953311F4552369F0F6018083BD
:10264000FD01842F90E2811108C0A40FB11D1C92DE
:1026500090E080E0F3CE81E3F1CF91938150F3CF0E
:10266000911183CF8ACF283008F027E03327DA0191
:10267000990F311D87FD916000966105710539F450
:1026800032602E5F3D9330E32A95E1F708959F3F36
:1026900030F080387105610509F03C5F3C5F3D9387
:1026A000913008F08068911DDF93CF931F930F93B3
:1026B000FF92EF92192F987F9695E92F9695969510
:1026C000E90FFF27EE51FE4F99273327EE24FF2411
:1026D000A701E70105900894079428F4360FE71E38
:1026E000F81E491F511D660F771F881F991F0694FA
:1026F000A1F70590079428F4E70EF81E491F561F0E
:10270000C11D770F881F991F661F0694A1F70590BA
:10271000079428F4F80E491F561FC71FD11D880FB4
:10272000991F661F771F0694A1F70590079420F460
:10273000490F561FC71FD81F990F661F771F881F85
:102740000694A9F784911095177041F0D695C79516
:1027500057954795F794E7941A95C1F7E8E8F1E0A3
:1027600068941590159135916591959105907FE24A
:102770007395E118F10A430B560BC90BD009C0F74A
:10278000E10CF11E431F561FC91FD01D7EF470338C
:1027900011F48A95E6CFE894015030F0080F0AF45E
:1027A0000027021708F4202F2395022F7A3328F0F0
:1027B00079E37D932A95E9F710C07D932A9589F6F0
:1027C000069497956795379517951794E118F10A30
:1027D000430B560BC90BD00998F023957E91739546
:1027E0007A3308F070E37C932013B8F77E91706120
:1027F0007D9330F0839571E37D9370E32A95E1F743
:102800001124EF90FF900F911F91CF91DF919927A5
:1028100087FD90950895052E97FB1EF400940E9465
:10282000221457FD07D00E943D1407FC03D04EF43C
:102830000C94221450954095309521953F4F4F4F61
:102840005F4F089590958095709561957F4F8F4F5C
:102850009F4F08950E945F14A59F900DB49F900D07
:10286000A49F800D911D11240895B7FF0C942A1484
:102870000E942A14821B930B0895A1E21A2EAA1B10
:10288000BB1BFD010DC0AA1FBB1FEE1FFF1FA21720
:10289000B307E407F50720F0A21BB30BE40BF50B1D
:1028A000661F771F881F991F1A9469F760957095A6
:1028B000809590959B01AC01BD01CF010895A29F29
:1028C000B001B39FC001A39F700D811D1124911D04
:1028D000B29F700D811D1124911D08955058BB2782
:1028E000AA270E9486140C94F9150E94EB1538F063
:1028F0000E94F21520F039F49F3F19F426F40C944D
:10290000E8150EF4E095E7FB0C94E215E92F0E9420
:102910000A1658F3BA17620773078407950720F061
:1029200079F4A6F50C942C160EF4E0950B2EBA2F24
:10293000A02D0B01B90190010C01CA01A0011124C5
:10294000FF27591B99F0593F50F4503E68F11A1671
:10295000F040A22F232F342F4427585FF3CF469502
:1029600037952795A795F0405395C9F77EF41F1624
:10297000BA0B620B730B840BBAF09150A1F0FF0FEE
:10298000BB1F661F771F881FC2F70EC0BA0F621FDA
:10299000731F841F48F4879577956795B795F795CA
:1029A0009E3F08F0B0CF9395880F08F09927EE0F5F
:1029B0009795879508950E94BE1508F481E00895C3
:1029C0000E94F4140C94F9150E94F21558F00E941C
:1029D000EB1540F029F45F3F29F00C94E2155111FA
:1029E0000C942D160C94E8150E940A1668F399238E
:1029F000B1F3552391F3951B550BBB27AA276217FB
:102A00007307840738F09F5F5F4F220F331F441F07
:102A1000AA1FA9F335D00E2E3AF0E0E832D091503B
:102A20005040E695001CCAF72BD0FE2F29D0660F28
:102A3000771F881FBB1F261737074807AB07B0E86B
:102A400009F0BB0B802DBF01FF2793585F4F3AF071
:102A50009E3F510578F00C94E2150C942D165F3FC3
:102A6000E4F3983ED4F3869577956795B795F795F7
:102A70009F5FC9F7880F911D9695879597F90895DF
:102A8000E1E0660F771F881FBB1F6217730784077B
:102A9000BA0720F0621B730B840BBA0BEE1F88F78A
:102AA000E09508950E94121688F09F5798F0B92F6C
:102AB0009927B751B0F0E1F0660F771F881F991F73
:102AC0001AF0BA95C9F714C0B13091F00E942C16D3
:102AD000B1E008950C942C16672F782F8827B85FE3
:102AE00039F0B93FCCF3869577956795B395D9F7CB
:102AF0003EF490958095709561957F4F8F4F9F4FD5
:102B00000895E89409C097FB3EF4909580957095E0
:102B100061957F4F8F4F9F4F9923A9F0F92F96E929
:102B2000BB279395F695879577956795B795F1119E
:102B3000F8CFFAF4BB0F11F460FF1BC06F5F7F4F3B
:102B40008F4F9F4F16C0882311F096E911C077234D
:102B500021F09EE8872F762F05C0662371F096E856
:102B6000862F70E060E02AF09A95660F771F881F25
:102B7000DAF7880F9695879597F90895990F0008C9
:102B8000550FAA0BE0E8FEEF16161706E807F9073F
:102B9000C0F012161306E407F50798F0621B730BDA
:102BA000840B950B39F40A2661F0232B242B252B5B
:102BB00021F408950A2609F4A140A6958FEF811DFE
:102BC000811D089597F99F6780E870E060E008959F
:102BD0009FEF80EC089500240A9416161706180635
:102BE0000906089500240A94121613061406050611
:102BF0000895092E0394000C11F4882352F0BB0FA2
:102C000040F4BF2B11F460FF04C06F5F7F4F8F4F04
:102C10009F4F089557FD9058440F551F59F05F3F3F
:102C200071F04795880F97FB991F61F09F3F79F0EE
:102C300087950895121613061406551FF2CF469570
:102C4000F1DF08C0161617061806991FF1CF8695F2
:102C50007105610508940895E894BB2766277727D6
:102C6000CB0197F908950E94BE1508F48FEF0895DF
:102C70000E944B160C94F9150E94EB1538F00E9437
:102C8000F21520F0952311F00C94E2150C94E81540
:102C900011240C942D160E940A1670F3959FC1F30F
:102CA000950F50E0551F629FF001729FBB27F00DFA
:102CB000B11D639FAA27F00DB11DAA1F649F66274F
:102CC000B00DA11D661F829F2227B00DA11D621F9E
:102CD000739FB00DA11D621F839FA00D611D221F58
:102CE000749F3327A00D611D231F849F600D211D3C
:102CF000822F762F6A2F11249F5750409AF0F1F0BF
:102D000088234AF0EE0FFF1FBB1F661F771F881F27
:102D100091505040A9F79E3F510580F00C94E21568
:102D20000C942D165F3FE4F3983ED4F38695779587
:102D30006795B795F795E7959F5FC1F7FE2B880FCD
:102D4000911D9695879597F90895991B79E004C090
:102D5000991F961708F0961B881F7A95C9F78095DA
:102D6000089597FB072E16F4009407D077FD09D03D
:102D70000E94CD1607FC05D03EF4909581959F4F9B
:102D80000895709561957F4F0895EE0FFF1F881F7E
:102D90008BBF0790F691E02D1994AA1BBB1B51E144
:102DA00007C0AA1FBB1FA617B70710F0A61BB70BBB
:102DB000881F991F5A95A9F780959095BC01CD0160
:102DC00008950F931F93CF93DF93CDB7DEB72E9760
:102DD0000FB6F894DEBF0FBECDBF0E891F8986E007
:102DE0008C831A8309838FEF9FE79E838D83AE01C7
:102DF000465E5F4F688D798DCE0101960E94111756
:102E00002F813885020F131FF80110822E960FB6FE
:102E1000F894DEBF0FBECDBFDF91CF911F910F9110
:102E200008952F923F924F925F926F927F928F926E
:102E30009F92AF92BF92CF92DF92EF92FF920F9349
:102E40001F93CF93DF9300D000D000D01F921F922A
:102E5000CDB7DEB77C013B018A01FC0117821682E7
:102E6000838181FFDDC1CE0101965C01F701938171
:102E7000F30193FD859193FF81913F01882309F42C
:102E800053C1853239F493FD859193FF81913F01C0
:102E9000853229F4B70190E00E942919E7CF912CDF
:102EA000212C312CFFE1F31538F08B3211F190F425
:102EB000803209F1833229F137FC3CC020ED280F24
:102EC0002A3050F536FE20C08AE0989E200D11244D
:102ED000922E06C08D3291F0803371F7689430F8ED
:102EE000F30193FD859193FF81913F018111DACF29
:102EF00021C0689431F8689432F8F2CF689433F8BE
:102F0000EFCF689434F8ECCFEAE02E9E200D112428
:102F1000222E689435F8E4CF8E3229F436FC04C1B1
:102F2000689436F8DDCF8C3619F4689437F8D8CF2A
:102F30008836B1F2982F9F7D95549330E0F0833618
:102F4000A1F18337C1F1833509F063C02801F2E0B4
:102F50004F0E511CF801C080D180692D70E036FC05
:102F600002C06FEF7FEFC6010E9413194C016894F5
:102F700037F882010AC00C5F1F4FFFE3F9838824F2
:102F80008394912C6501E89437F833FE2DC0522CC0
:102F90008114910471F5552009F468CFB70180E2DE
:102FA00090E00E9429195A94F6CFF8018081898314
:102FB0000E5F1F4FE4CF2801F2E04F0E511CF801C5
:102FC000C080D180692D70E036FC02C06FEF7FEFCA
:102FD000C6010E941E194C018201D5CFB70180E2C3
:102FE00090E00E9429192A942814190409F0B0F7D6
:102FF000CECFF60137FC859137FE81916F01B70185
:1030000090E00E94291951105A94F1E08F1A91080A
:10301000BFCF843619F0893609F077C0F80137FE42
:103020006BC060817181828193810C5F1F4FF32D92
:10303000FF763F2E97FF09C090958095709561951A
:103040007F4F8F4F9F4F689437F82AE030E0A501FB
:103050000E945919C82ECA188C2C432C36FE0CC05D
:10306000E89440F8C91440F434FE05C032FC03C0B3
:10307000F32DFE7E4F2E892C44FEAAC0FE01EC0DDE
:10308000F11D8081803309F09CC0242D297E422EC1
:10309000842D8870582E43FCAAC040FEA4C09C2CEE
:1030A000821418F42C0C922C981844FEA6C0B70178
:1030B00080E390E00E94291942FE09C088E790E071
:1030C00041FE02C088E590E0B7010E942919C914A9
:1030D00008F49FC0CA94D12C9FEFC91AD90ACA0C10
:1030E000DB1CF60182916F01B70190E00E94291963
:1030F000AC14BD04B1F74FCF60817181072E000C75
:10310000880B990B0E5F1F4F92CFD32CE894D4F805
:103110002AE030E08537E1F1232D297FD22E8F364A
:10312000A9F1F0F4883551F1F701868197812B964A
:103130000FB6F894DEBF0FBECDBFDF91CF911F91C8
:103140000F91FF90EF90DF90CF90BF90AF909F9046
:103150008F907F906F905F904F903F902F90089549
:10316000803749F0883701F7D4FE02C06894D2F85E
:1031700020E130E00DC06894D4F8F6CF34FE03C0EF
:10318000822F8660D82E20E132E002C028E030E0B5
:10319000F801D7FE0FC060817181828193810C5F3D
:1031A0001F4FA5010E945919C82ECA183D2CE8943A
:1031B00037F852CF6081718190E080E00E5F1F4F41
:1031C000F0CF42FC02C0839463CF8394839460CF9A
:1031D000842D867809F45CCFF6CFB70180E290E0C9
:1031E0000E94291983948214C0F3512C5ECF522C73
:1031F0005818821408F459CFF8CF842D867809F432
:1032000066CF8BE241FE80E247FC8DE2B70190E0A1
:103210005CCFB70180E390E00E9429199A9457CFC0
:103220008FEF9FEF84CFFC0105906150704001103B
:10323000D8F7809590958E0F9F1F0895FC016150DF
:10324000704001900110D8F7809590958E0F9F1FC8
:1032500008950F931F93CF93DF93182F092FEB013E
:103260008B8181FD09C01FEF0FEF812F902FDF9120
:10327000CF911F910F91089582FF14C02E813F813D
:103280008C819D81281739073CF4E881F981CF01B1
:1032900001969983888310838E819F8101969F83F5
:1032A0008E83E3CFE885F985812F1995892BA1F3CA
:1032B000DACFFA01AA27283051F1203181F1E894C0
:1032C0006F936E7F6E5F7F4F8F4F9F4FAF4FB1E019
:1032D0003ED0B4E03CD0670F781F891F9A1FA11D14
:1032E000680F791F8A1F911DA11D6A0F711D811D15
:1032F000911DA11D20D009F468943F912AE0269FDA
:1033000011243019305D3193DEF6CF010895462F38
:103310004770405D4193B3E00FD0C9F7F6CF462F19
:103320004F70405D4A3318F0495D31FD4052419382
:1033300002D0A9F7EACFB4E0A6959795879577953F
:103340006795BA95C9F700976105710508959B01C6
:10335000AC010A2E06945795479537952795BA954F
:10336000C9F7620F731F841F951FA01D0895F8945D
:02337000FFCF8D
:10337200FFDB03DB03DB03DB03DB03DB03DB03DB5F
:103382000300008C4200009643000000001C08DC91
:1033920003C404C3044D41524348410050415241C9
:1033A200444F0043414D494E41444F524120455301
:1033B200504500496E696369616E646F2E2E2E005E
:1033C20056454C2000206B6D2F682000494E43204B
:1033D200253275252520202573005449454D504F2F
:1033E200202530326C753A2530326C753A253032F0
:1033F2006C7500444953542000206B6D20004B43F0
:10340200414C200020202020200046414C54414EB7
:02341200200098
:00000001FF
