:100000000C94D3010C94390A0C940E0A0C94E30955
:100010000C94B8090C948D090C9462090C9437095E
:100020000C940C090C9404020C9404020C94040229
:100030000C9404020C94640A0C9404020C940402C0
:100040000C9404020C948D0B0C9404020C94040286
:100050000C9404020C9404020C9404020C94C20844
:100060000C9404020C9404020C9404020C940402F8
:100070000C9404020C9404020C9404020C940402E8
:100080000C945F0B0C9404020C9404020C94040274
:100090000C9404020C9404020C9404020C940402C8
:1000A0000C9404020C9404020C94310B0C94040282
:1000B0000C9404020C9404020C9404020C94030BA0
:1000C0000C9404020C9404020C9404020C94040298
:1000D0000C9404020C9404020C9404020C94040288
:1000E0000C9404020C94A6020C9497120C94C9026E
:1000F0000C9441130C94C5020C94D7020C94111368
:100100000C94F4120C94D3020C94E5020C940E049B
:100110000C94B4120C9405130C94E1020C94A002FC
:100120000C94CD020C94F5040C94C8120C94EB07BB
:100130000C94BB020C94D0120C94E8120C94B502EF
:100140000C94AA020C94F6040C9429130C941D131D
:100150000C94DC120C94B2020C94DB020C949212FC
:100160000C94D4030C949C120C940D040C94AE02C9
:100170000C94BF020C945C130C94A8120C94C01243
:100180000C94E0020C94351300407A10F35A00A04E
:10019000724E18090010A5D4E80000E87648170050
:1001A00000E40B54020000CA9A3B000000E1F50590
:1001B000000080969800000040420F000000A086DA
:1001C00001000000102700000000E803000000000C
:1001D0006400000000000A000000000001000000B0
:1001E00000002C76D888DC674F0823DFC1DFAE59CA
:1001F000E1B1B796E5E3E453C63AE651997696E85D
:10020000E6C28426EB898C9B62ED407C6FFCEFBCE0
:100210009C9F40F2BAA56FA5F490055A2AF75C930B
:100220006B6CF9676DC11BFCE0E40D47FEF520E641
:10023000B500D0ED902E0300943577050080841E24
:10024000080000204E0A000000C80C333333330F7F
:10025000986E12831141EF8D2114893BE65516CF1C
:10026000FEE6DB18D1844B381BF77C1D901DA4BB28
:10027000E424203284725E228100C9F124ECA1E5DD
:100280003D270200002100240027002A002D003015
:1002900000330001010000040107010A01000022EF
:1002A00000250028002B002E003100340002010040
:1002B00000050108010B0100002000230026002991
:1002C000002C002F0032000001000003010601098C
:1002D0000105050505070508080808020202020ACB
:1002E0000A080804040404010101010101010103D9
:1002F00003030303030303040707070C0C0C0C0C94
:100300000C0C0C0202020206060606060606060B86
:100310000B0B0B0B0B0B0B010210202008081020FD
:100320004010204080020102010804020101020481
:100330000810204080804020100804020180040240
:100340000180402010080402010804020101020497
:100350000810204080010204081020408000000A9C
:100360000B02090C0D0E0807030401000000000039
:10037000000000000000000000000000000000007D
:10038000000000000000000000121110000000003A
:10039000000000000000000000000000000000005D
:1003A000000000005C1311241FBECFEFD1E2DEBFBE
:1003B000CDBF00E00CBF12E0A0E0B2E0E0E4F8E363
:1003C00000E00BBF02C007900D92A83AB107D9F721
:1003D00023E0A8EAB2E001C01D92AA3EB207E1F70D
:1003E00011E0C3EDD1E000E006C021970109802FA4
:1003F000FE010E942C19C23DD10780E00807A9F731
:100400000E94BB0B0C941E1C0C940000CF92DF9238
:10041000EF92FF92DC01A03282E0B807D4F5A53B51
:10042000B10514F0A4EBB0E04091E80328E830E017
:10043000241B310947FD3395220F331F220F331F31
:100440006901330FEE08FF084091E90328E532E027
:10045000241B310947FD3395220F331F220F331F11
:10046000032E000C440B550B2C193D094E095F0956
:10047000B7FF02C0B0E0A0E00E949C1624EB30E081
:1004800040E050E00E947216C20ED31EE41EF51E1C
:10049000D601E091E703E03380F52091E80388E896
:1004A00090E0821B910927FD9395880F991F880F73
:1004B000991FA817B90784F02091E90388E592E015
:1004C000821B910927FD9395880F991F880F991F0B
:1004D000A817B9070CF4CD010297880F991F4FB7E1
:1004E000F8942E2F30E0F901EE0FFF1FE20FF31FFB
:1004F000E95AFC4F928381834FBFFF90EF90DF90CA
:10050000CF9008958150823108F05AC0E82FF0E072
:100510008827E257FD4F8F4F0C942C19AE02B20280
:10052000A002A602AA02E002B502BB02BF02C502F7
:10053000C902CD02D302D702E002DB02E102E502EA
:10054000809180008F778093800008958091800053
:100550008F7DF9CF80918000877FF5CF84B58F772D
:1005600084BD089584B58F7DFBCF8091B0008F77D7
:100570008093B00008958091B0008F7DF9CF809175
:1005800090008F77809390000895809190008F7DE8
:10059000F9CF80919000877FF5CF8091A0008F7771
:1005A0008093A00008958091A0008F7DF9CF809165
:1005B000A000877FF5CF809120018F778093200165
:1005C0000895809120018F7DF9CF80912001877F50
:1005D000F5CFCF93DF93282F30E0F901E35AFC4F9A
:1005E0008491F901E95EFC4FD491F901EF52FD4F7E
:1005F000C491CC23A1F081110E948202EC2FF0E083
:10060000EE0FFF1FE954FD4FA591B491EC91ED233E
:1006100081E090E009F480E0DF91CF91089580E0DF
:1006200090E0FACF1F93CF93DF93282F30E0F901AA
:10063000E35AFC4F8491F901E95EFC4FD491F90132
:10064000EF52FD4FC491CC23A9F0162F81110E94C7
:100650008202EC2FF0E0EE0FFF1FE356FD4FA59155
:10066000B4918FB7F894EC91111108C0D095DE23A6
:10067000DC938FBFDF91CF911F910895DE2BF8CFD0
:10068000CF93DF9390E0FC01E95EFC4F24918F5201
:100690009D4FFC0184918823D1F090E0880F991F31
:1006A000FC01ED57FD4FA591B491FC01E356FD4FC0
:1006B000C591D491623071F49FB7F8943C91822F28
:1006C000809583238C93E8812E2B28839FBFDF9115
:1006D000CF9108958FB7F894EC912E2B2C938FBF68
:1006E000F6CF3FB7F8948091530390915403A091B3
:1006F0005503B091560326B5A89B05C02F3F19F0AE
:100700000196A11DB11D3FBFBA2FA92F982F882791
:10071000BC01CD01620F711D811D911D42E0660F6C
:10072000771F881F991F4A95D1F708958F929F923E
:10073000AF92BF92CF92DF92EF92FF924B015C019A
:100740000E9471036B017C010E9471036C197D0989
:100750008E099F09683E734081059105A8F321E049
:10076000821A9108A108B10888EEC80E83E0D81E4D
:10077000E11CF11C81149104A104B10429F7FF903C
:10078000EF90DF90CF90BF90AF909F908F900895A3
:100790002FB7F89460914F037091500380915103EB
:1007A000909152032FBF08950F931F930E94C80387
:1007B000AB01BC018091A8029091A902A091AA026C
:1007C000B091AB028A019B01081B190B2A0B3B0B52
:1007D000D901C80189379105A105B105D8F08091EB
:1007E000D1029091D202A091D302B091D40201968D
:1007F000A11DB11D8093D1029093D202A093D30288
:10080000B093D4024093A8025093A9026093AA0225
:100810007093AB021F910F9108950895AF92BF920C
:10082000CF92DF92EF92FF920F931F93CF93DF93BC
:100830006C017B018B01040F151FEB015E01AE18EB
:10084000BF08C017D10759F06991D601ED91FC910D
:100850000190F081E02DC6011995892B79F7C5012A
:10086000DF91CF911F910F91FF90EF90DF90CF908C
:10087000BF90AF900895AF92BF92CF92DF92EF9268
:10088000FF920F931F93CF93DF936B017A01EC01DB
:10089000CA53DD4F28813CE0389F8001399F100DFD
:1008A0001124A090C502B12C27FF1FC0FB011182AB
:1008B000108288818F5F888388819801280F311D7D
:1008C00087FD3A95F6012A153B051CF488818C308A
:1008D000C4F180819181049680349C4908F473C0EE
:1008E000F60180819181049670C088819801280F5B
:1008F000311D87FD3A952A153B05DCF68881A80154
:10090000480F511D87FD5A95FA01EE0FFF1FE40FA6
:10091000F51FE95AFC4F808186FFCBCF8881F80113
:10092000E80FF11D87FDFA95CF01EE0FFF1FE80FCD
:10093000F91FE95AFC4F808160E08F730E94120317
:10094000B8CF808191812881A801420F511D27FDD8
:100950005A959A01FA01EE0FFF1FE20FF31FE95AB1
:10096000FC4F21813281820F931FF7019183808395
:1009700088819801280F311D87FD3A95F901EE0F06
:10098000FF1FE20FF31FE95AFC4F808186FF22C050
:100990008881080F111D87FD1A95F801EE0FFF1FC2
:1009A000E00FF11FE95AFC4F808161E08F73DF9106
:1009B000CF911F910F91FF90EF90DF90CF90BF905C
:1009C000AF900C94120380E49CE9F701918380833B
:1009D0008FEF8883DF91CF911F910F91FF90EF9060
:1009E000DF90CF90BF90AF900895089590E080E0A1
:1009F00008954F925F926F927F92AF92BF92CF9283
:100A0000DF92EF92FF920F931F93CF938C015B01C4
:100A1000809100028C3289F08F3F09F451C0CF9150
:100A20001F910F91FF90EF90DF90CF90BF90AF900C
:100A30007F906F905F904F900895E2E8F2E0C4914C
:100A4000C7FDEDCF61E08CE20E9440032801712CCC
:100A5000612CCC23F1F0980150E040E0C23009F065
:100A600003C128013A0160E970ED83E090E00E9443
:100A7000721669017A0181E0C81AD108E108F1080B
:100A800093E08FEFC816D104E104F10409F00CF4EF
:100A90009EC168E478EE81E090E0A30192010E949B
:100AA000721669017A0181E0C81AD108E108F108DB
:100AB00094E0C1118CC185B5887F836085BDE9C094
:100AC0008CE280930002E2E8F2E0C4918C2FCF3FE9
:100AD00009F4A5CFC23009F468C060F4CC2379F1E1
:100AE000C13009F444C087FD9ACF61E08CE20E94D6
:100AF0004003B1CFC43009F499C008F478C0C530C0
:100B000091F71092200110922101809121018860BB
:100B10008093210180912101816080932101EDEF7B
:100B2000F2E0E491F0E0EE0FFF1FE356FD4F8591F8
:100B30009491E3E4F3E0E491E093AC0283CF14BC3E
:100B400015BC84B5826084BD85B5816085BDEDEF3F
:100B5000F2E0E491F0E0EE0FFF1FE356FD4F8591C8
:100B60009491E3E4F3E0E491E093B0026BCF109250
:100B700080001092810080918100886080938100C4
:100B800080918100816080938100EDEFF2E0E4913B
:100B9000F0E0EE0FFF1FE356FD4F85919491E3E4E3
:100BA000F3E0E491E093AF024DCF1092B0001092C9
:100BB000B1008091B00082608093B0008091B1005C
:100BC00081608093B100EDEFF2E0E491F0E0EE0F90
:100BD000FF1FE356FD4F859194919093CB02809334
:100BE000CA02E3E4F3E0E491E093CC022BCF10924D
:100BF0009000109291008091910088608093910004
:100C000080919100816080939100EDEFF2E0E4919A
:100C1000F0E0EE0FFF1FE356FD4F85919491E3E462
:100C2000F3E0E491E093AE02C3E00CCF1092A00099
:100C30001092A1008091A10088608093A100809112
:100C4000A10081608093A100EDEFF2E0E491F0E07B
:100C5000EE0FFF1FE356FD4F85919491E3E4F3E01F
:100C6000E491E093AD02EECE60E072E18AE790E0BD
:100C70000E94721669017A0181E0C81AD108E10860
:100C8000F108C13071F580918100887F8160809387
:100C900081009801220F331FD5010E94C61628EE4D
:100CA00033E040E050E00E94A416C23009F443C093
:100CB0000CF075C0CC2381F1C13009F0B0CED092D8
:100CC0008900C09288002093BD023093BE024093F9
:100CD000BF025093C00280916F00826080936F00CA
:100CE0009ECEC33039F480919100887F81608093DB
:100CF0009100CFCFC43039F48091A100887F81600A
:100D00008093A100C6CFC53021F680912101887F54
:100D1000816080932101BDCFC7BC2093C102309375
:100D2000C2024093C3025093C40280916E0082605D
:100D300080936E0074CEC092B3002093CD023093A6
:100D4000CE024093CF025093D00280917000826017
:100D50008093700064CED0929900C0929800209346
:100D6000B9023093BA024093BB025093BC02809107
:100D7000710082608093710052CED092A900C0921F
:100D8000A8002093B5023093B6024093B702509367
:100D9000B8028091720082608093720040CEC430AD
:100DA00061F3CCF2C53009F03ACED0922901C0925D
:100DB00028012093B1023093B2024093B3025093C2
:100DC000B4028091730082608093730028CE80917A
:100DD000B100887F892B8093B1005BCFCF93DF93E5
:100DE000D82FC8E06D2F661F6627661F87E10E9417
:100DF0001203DD0F61E089E10E94120360E089E1E6
:100E00000E941203C15071F7DF91CF9108951F9393
:100E1000CF93DF93C82F162FD42F60E00E941203C8
:100E2000812F0E94EE068D2F0E94EE06812F0E94D8
:100E3000EE068D2F0E94EE0661E08C2FDF91CF91A0
:100E40001F910C941203EF92FF920F931F93CF9375
:100E5000DF9385E2E82E82E0F82ED0E006E010E095
:100E6000C0E0909149038C2F8D0F890F9927991F0E
:100E7000B8010E94181941E002970CF040E041953A
:100E8000CF5F6C2FF70180810E940707C83049F7B8
:100E9000D85FFFEFEF1AFF0AD03311F7DF91CF9140
:100EA0001F910F91FF90EF900895CF93DF93EC0186
:100EB00060E08E810E94120361E08E810E94120325
:100EC00060E08E810E9412038BE891E00197F1F7B8
:100ED000DF91CF910895CF92DF92EF92FF920F931F
:100EE0001F93CF93DF936C017C0187E0E80EF11C28
:100EF000D0E0C0E0062F10E0B8010C2E02C07595BE
:100F000067950A94E2F76170F70181917F010E9471
:100F100012032196C430D10579F7C601DF91CF9134
:100F20001F910F91FF90EF90DF90CF900C94550799
:100F3000CF92DF92EF92FF920F931F93CF93DF93A5
:100F4000EC01F62E642F8C810E9412038D818F3F5D
:100F500019F060E00E9412030F2D10E08F8584FFCE
:100F600025C06E0187E0C80ED11CF12CE12CB80120
:100F70000E2C02C0759567950A94E2F76170F60130
:100F800081916F010E941203FFEFEF1AFF0A88E0C0
:100F9000E816F10461F7CE01DF91CF911F910F9117
:100FA000FF90EF90DF90CF900C945507B80184E04C
:100FB000759567958A95E1F7CE010E946B076F2DB5
:100FC000CE01DF91CF911F910F91FF90EF90DF90B5
:100FD000CF900C946B0741E00E94980781E090E06D
:100FE000089540E00C949807FC012389621710F0E3
:100FF0006FEF620FFC01E60FF11D648960680C94CD
:10100000F10761E00E94F1078BE39FE10197F1F79F
:1010100008950F931F93CF93DF93EC01623019F47F
:101020008F8588608F876B8B1C8A80E48D8B80E135
:101030008E8B80E58F8B61E08C810E9440038D81D7
:101040008F3F19F061E00E94400361E08E810E94B1
:1010500040038E0198012C1B3D0B8F8584FD0DC034
:1010600084E090E00F5F1F4F281739074CF461E0D0
:10107000F80186810E944003EDCF88E090E0F2CF36
:101080008BE39DE00197F1F760E08C810E941203F1
:1010900060E08E810E9412038D818F3F19F060E025
:1010A0000E9412036F8564FD34C063E0CE010E948C
:1010B0006B070BE416E4C8010197F1F763E0CE017A
:1010C0000E946B07C8010197F1F763E0CE010E940F
:1010D0006B0783E592E00197F1F762E0CE010E9491
:1010E0006B076F856062CE010E94F10784E0888BF8
:1010F0006CE0CE010E94F107CE010E94010882E05F
:10110000898B66E0CE01DF91CF911F910F910C94F6
:10111000F1076062CE010E94F1078BE496E401972B
:10112000F1F76F856062CE010E94F10783E592E0DE
:101130000197F1F76F856062CE010E94F107D1CF70
:1011400010924803109244031092450310924603F4
:101150001092470361E085E00E94400360E085E073
:101160000E9412036AEF70E088E592E00C94F904A3
:10117000FB0101900020E9F73197AF01461B570BA7
:101180000C940E041F920F920FB60F9211242F93FE
:101190003F938F939F93AF93BF9380914F03909111
:1011A0005003A0915103B091520330914E0323E0BC
:1011B000230F2D3758F50196A11DB11D20934E0325
:1011C00080934F0390935003A0935103B093520325
:1011D0008091530390915403A0915503B09156030D
:1011E0000196A11DB11D8093530390935403A093C6
:1011F0005503B0935603BF91AF919F918F913F914B
:101200002F910F900FBE0F901F90189526E8230F77
:101210000296A11DB11DD2CF1F920F920FB60F9251
:1012200011240BB60F922F933F934F935F936F93BD
:101230007F938F939F93AF93BF93EF93FF93E0912F
:101240000F02F09110021995FF91EF91BF91AF91AC
:101250009F918F917F916F915F914F913F912F91CE
:101260000F900BBE0F900FBE0F901F9018951F92FE
:101270000F920FB60F9211240BB60F922F933F933C
:101280004F935F936F937F938F939F93AF93BF938E
:10129000EF93FF93E0910D02F0910E021995FF91EB
:1012A000EF91BF91AF919F918F917F916F915F91DE
:1012B0004F913F912F910F900BBE0F900FBE0F904B
:1012C0001F9018951F920F920FB60F9211240BB614
:1012D0000F922F933F934F935F936F937F938F93CF
:1012E0009F93AF93BF93EF93FF93E0910302F0912D
:1012F00004021995FF91EF91BF91AF919F918F914A
:101300007F916F915F914F913F912F910F900BBE05
:101310000F900FBE0F901F9018951F920F920FB64F
:101320000F9211240BB60F922F933F934F935F931D
:101330006F937F938F939F93AF93BF93EF93FF939D
:10134000E0910102F09102021995FF91EF91BF9196
:10135000AF919F918F917F916F915F914F913F914D
:101360002F910F900BBE0F900FBE0F901F901895EE
:101370001F920F920FB60F9211240BB60F922F935C
:101380003F934F935F936F937F938F939F93AF930D
:10139000BF93EF93FF93E0910B02F0910C0219952C
:1013A000FF91EF91BF91AF919F918F917F916F913D
:1013B0005F914F913F912F910F900BBE0F900FBEF9
:1013C0000F901F9018951F920F920FB60F92112435
:1013D0000BB60F922F933F934F935F936F937F932F
:1013E0008F939F93AF93BF93EF93FF93E091090285
:1013F000F0910A021995FF91EF91BF91AF919F91E2
:101400008F917F916F915F914F913F912F910F90AD
:101410000BBE0F900FBE0F901F9018951F920F924A
:101420000FB60F9211240BB60F922F933F934F9349
:101430005F936F937F938F939F93AF93BF93EF933C
:10144000FF93E0910702F09108021995FF91EF9147
:10145000BF91AF919F918F917F916F915F914F91CC
:101460003F912F910F900BBE0F900FBE0F901F90CA
:1014700018951F920F920FB60F9211240BB60F9270
:101480002F933F934F935F936F937F938F939F938C
:10149000AF93BF93EF93FF93E0910502F0910602A3
:1014A0001995FF91EF91BF91AF919F918F917F918E
:1014B0006F915F914F913F912F910F900BBE0F90C5
:1014C0000FBE0F901F9018951F920F920FB60F929C
:1014D00011240BB60F922F933F934F935F936F930B
:1014E0007F938F939F93AF93BF93EF93FF938091DD
:1014F000CD029091CE02A091CF02B091D002892B63
:101500008A2B8B2BE1F19091CC02E091CA02F091F1
:10151000CB028081892780838091CD029091CE0279
:10152000A091CF02B091D002181619061A061B0618
:101530009CF48091CD029091CE02A091CF02B09107
:10154000D0020197A109B1098093CD029093CE02F8
:10155000A093CF02B093D002FF91EF91BF91AF91D2
:101560009F918F917F916F915F914F913F912F91BB
:101570000F900BBE0F900FBE0F901F90189580918B
:101580000002E2E8F2E0E4919FEF90930002E23083
:10159000E9F040F4EE2389F0E13091F060E00E9440
:1015A0001203DACFE43049F110F1E530B9F7909148
:1015B00073009D7F90937300F1CF10926E00EECF79
:1015C00090916F009D7F90936F00E8CF9091700095
:1015D0009D7F9093700091E09093B0009091B10046
:1015E000987F94609093B1001092B300D7CF909100
:1015F00071009D7F90937100D1CF909172009D7F7B
:1016000090937200CBCF1F920F920FB60F921124BE
:101610000BB60F922F933F934F935F936F937F93EC
:101620008F939F93AF93BF93EF93FF9348E251E063
:1016300064E271E090E080E00E943B04FF91EF9152
:10164000BF91AF919F918F917F916F915F914F91DA
:101650003F912F910F900BBE0F900FBE0F901F90D8
:1016600018951F920F920FB60F9211240BB60F927E
:101670002F933F934F935F936F937F938F939F939A
:10168000AF93BF93EF93FF9348EA50E064EA70E0B2
:1016900083E090E00E943B04FF91EF91BF91AF91F6
:1016A0009F918F917F916F915F914F913F912F917A
:1016B0000F900BBE0F900FBE0F901F9018951F92AA
:1016C0000F920FB60F9211240BB60F922F933F93E8
:1016D0004F935F936F937F938F939F93AF93BF933A
:1016E000EF93FF9348E950E064E970E082E090E016
:1016F0000E943B04FF91EF91BF91AF919F918F9119
:101700007F916F915F914F913F912F910F900BBE01
:101710000F900FBE0F901F9018951F920F920FB64B
:101720000F9211240BB60F922F933F934F935F9319
:101730006F937F938F939F93AF93BF93EF93FF9399
:1017400048E850E064E870E081E090E00E943B04EB
:10175000FF91EF91BF91AF919F918F917F916F9189
:101760005F914F913F912F910F900BBE0F900FBE45
:101770000F901F901895CF93DF93CDB7DEB7A69744
:101780000FB6F894DEBF0FBECDBF789484B58260EB
:1017900084BD84B5816084BD85B5826085BD85B515
:1017A000816085BD80916E00816080936E00109293
:1017B000810080918100826080938100809181000E
:1017C000816080938100809180008160809380009F
:1017D0008091B10084608093B1008091B0008160FD
:1017E0008093B000809191008260809391008091FD
:1017F000910081608093910080919000816080933E
:1018000090008091A10082608093A1008091A1004E
:1018100081608093A1008091A00081608093A000EE
:10182000809121018260809321018091210181605A
:10183000809321018091200181608093200180911B
:101840007A00846080937A0080917A00826080932D
:101850007A0080917A00816080937A0080917A008A
:10186000806880937A001092C10062E086E10E9455
:10187000400362E088E10E94400362E08AE10E9446
:10188000400362E08CE10E94400362E08EE10E942E
:10189000400362E082E20E94400362E082E00E9434
:1018A000400361E085E00E94400361E086E00E9421
:1018B000400361E088E20E94400361E08AE20E9406
:1018C000400361E08CE20E94400361E087E10E94F6
:1018D000400361E089E10E94400360E089E10E94E9
:1018E000120315E2C12E12E0D12E0BE2A02E02E06F
:1018F000B02E7601D7011D917D0161E0812F0E94FC
:10190000400361E0812F0E941203AE14BF0491F7DF
:10191000F60111916F0140E06FE0812F0E940707EF
:1019200040E069E0812F0E94070747E06BE0812FCC
:101930000E94070748E06AE0812F0E94070741E004
:101940006CE0812F0E940707EC14FD0409F70E9448
:1019500023078091E703803308F052C061E086E0FE
:101960000E9440038091E703282F30E0F901EE0F39
:10197000FF1FE20FF31FE95AFC4F9081907C9660A5
:1019800090831092E8031092E9032CE0622F0E94EA
:101990000C19829FB001112430E020E0AB01420F0E
:1019A000531FFA01EE0FFF1FE40FF51FE95AFC4F1A
:1019B000908196FD17C02F5F3F4F2C30310571F796
:1019C000813009F007C31092800082E0809381008B
:1019D0001092850010928400B19A80916F0082600D
:1019E00080936F00E091E7038E2F90E0FC01EE0FF3
:1019F000FF1FE80FF91FE95AFC4F80818064808344
:101A000090E080E00E94060284ED93E09093020251
:101A10008093010280916A008C7F826080936A00CB
:101A2000EC9A62E084EE92E00E94090862E084E0B1
:101A300093E00E94090862E084E293E00E940908B2
:101A400069E372E084EE92E00E94B80861E084EEFF
:101A500092E00E94F40769E472E084EE92E00E9452
:101A6000B80861E08AE20E9412036CED75E080E044
:101A700090E00E94960384EE92E00E94010884E0C8
:101A800093E00E94010884E293E00E9401089E0115
:101A90002F5F3F4F190182E20E94E902892B09F072
:101AA00037C38091DE028111C1C281E08093DE02E2
:101AB0000E94C8036093DA027093DB028093DC0219
:101AC0009093DD021092D9028091480381110E9407
:101AD000A0080E94C8036B017C018091DF029091F5
:101AE000E002A091E102B091E202A7019601281B59
:101AF000390B4A0B5B0BCA01B9010E94E81720E0C1
:101B000030E04AE754E40E9447172B013C012DECDA
:101B10003CEC4CEC5DE30E94421787FD62C0C09232
:101B2000DF02D092E002E092E102F092E2028091C4
:101B30007B00877F80937B0080E480937C00809192
:101B40007A00806480937A0080917A0086FDFCCFD1
:101B50006091780070917900072E000C880B990B2A
:101B60000E94EA1720E030EC4FE754E40E94471748
:101B700020E030E040EA52E40E949F1820E030E08C
:101B800040E252E40E94D616609311027093120252
:101B900080931302909314022091E30230E0AAE5AF
:101BA000B0E00E94C6162FE030E040E050E00E9416
:101BB0007216C9010E94060210914803612F88E243
:101BC0000E94120361E061278AE20E941203111150
:101BD0006CC361E085E00E94400360E085E00E9404
:101BE00012030E94C803C090FC02D090FD02E09056
:101BF000FE02F090FF026C197D098E099F096C327C
:101C000071408105910508F458C00E94C803609393
:101C1000FC027093FD028093FE029093FF0260919C
:101C200044037091450380914603909147038E01D0
:101C30000E5E1F4F21E044E00E94031460E084EE3A
:101C400092E00E94F40766E572E084EE92E00E9462
:101C5000B808B80184EE92E00E94B8086BE572E023
:101C600084EE92E00E94B80861E084EE92E00E9467
:101C7000F4078091480381111CC582E392E09F9391
:101C80008F938091E3021F928F9322E632E03F937D
:101C90002F933F922F920E944819B10184EE92E057
:101CA0000E94B8086DE972E084EE92E00E94B808E4
:101CB0000FB6F894DEBF0FBECDBF0E94C803C09020
:101CC0002003D0902103E0902203F09023036C19AD
:101CD0007D098E099F096C3271408105910508F4D8
:101CE00082C00E94C80360932003709321038093F5
:101CF000220390932303C0901C03D0901D03E09017
:101D00001E03F0901F03C701B60128EE33E040E048
:101D100050E00E94A41649015A01CA01B9012CE3FE
:101D200030E040E050E00E94A4169F938F937F9391
:101D30006F93C501B40120E13EE040E050E00E9415
:101D4000A4162CE330E040E050E00E94A4165F931C
:101D50004F933F932F93C701B60120E83EEE46E331
:101D600050E00E94A4165F934F933F932F93E0E7B8
:101D7000F2E0FF93EF933F922F920E94481960E0A8
:101D800084E093E00E94F407B10184E093E00E94B4
:101D9000B808609100037091010380910203909153
:101DA00003038E010E5E1F4F22E045E00E940314E4
:101DB00061E084E093E00E94F40769E872E084E067
:101DC00093E00E94B808B80184E093E00E94B8084C
:101DD0006FE872E084E093E00E94B8080FB6F894D0
:101DE000DEBF0FBECDBF0E94C803C0904003D0909D
:101DF0004103E0904203F09043036C197D098E0982
:101E00009F096C3271408105910508F46AC00E94F7
:101E1000C8036093400370934103809342039093FF
:101E2000430360913C0370913D0380913E03909188
:101E30003F038E010E5E1F4F21E045E00E94031418
:101E400060E084E293E00E94F40764E972E084E2D7
:101E500093E00E94B808B80184E293E00E94B808B9
:101E60006AE972E084E293E00E94B80820913C03A2
:101E700030913D0340913E0350913F036091150224
:101E80007091160280911702909118020E94D51647
:101E90006B017C0120E030E0A9010E94421787FF1E
:101EA00003C0C12CD12C7601810121E045E0C7019E
:101EB000B6010E94031461E084E293E00E94F407FB
:101EC00060EA72E084E293E00E94B808B10184E223
:101ED00093E00E94B8086DE972E084E293E00E940A
:101EE000B80880914803882309F46CC0C09044036B
:101EF000D0904503E0904603F090470320E030E0A7
:101F0000A901C701B6010E94421718160CF05AC069
:101F100020E030E040E85DE3C701B6010E949F1871
:101F200020E030E044EB53E40E949F189B01AC0199
:101F300060E070E088EC93E40E94D5166B017C01B0
:101F400020E030E040E252E40E94421787FF06C0E2
:101F5000C12CD12C80E2E82E82E4F82EC701B60114
:101F60000E94B9176B017C01C114D104E104F10492
:101F700049F10E94C80380904A0390904B03A090BF
:101F80004C03B0904D03681979098A099B096C15B7
:101F90007D058E059F05B0F00E94C80360934A033B
:101FA00070934B0380934C0390934D0380914903AE
:101FB00090E0059666E070E00E941819809349034E
:101FC0000E94230780E090E0892B09F464CD0E94F1
:101FD00000005DCD823061F41092900080939100FA
:101FE000109295001092940088BB80937100FACCF7
:101FF000833069F41092A00082E08093A1001092D7
:10200000A5001092A40089BB80937200EBCC8111D3
:10201000E9CC1092200182E08093210110922501E9
:10202000109224018ABB80937300DCCC8091D9028A
:1020300081114FCD0E94C803C090DA02D090DB021C
:10204000E090DC02F090DD026C197D098E099F0999
:10205000603D77408105910508F43BCD0E94A008C2
:1020600010920003109201031092020310920303D6
:1020700010923C0310923D0310923E0310923F03D6
:1020800080E090E0A6E9B3E48093150290931602F5
:10209000A0931702B093180210921C0310921D0314
:1020A00010921E0310921F031092D1021092D202BE
:1020B0001092D3021092D4021092E30210924903BC
:1020C00090E080E00E9406020E94230766E970E02B
:1020D00088E998E00E94F90464EB70E080E090E009
:1020E0000E94960366E970E088E998E00E94F9048E
:1020F00084EE92E00E94010884E093E00E940108CF
:1021000084E293E00E94010881E08093D902E1CC4F
:102110001092DE021092D9020E94C803C090D5022C
:10212000D090D602E090D702F090D8026C197D09C9
:102130008E099F09643B71058105910508F4C9CC9E
:1021400086E10E94E902892BB9F580914803882332
:1021500069F00E94A0080E94C8036093D5027093A2
:10216000D6028093D7029093D802B3CC81E08093BB
:10217000480320E030E040E85FE360914403709161
:10218000450380914603909147030E94421787FFC1
:102190000CC080E090E0A0E8BFE3809344039093FC
:1021A0004503A0934603B093470368E770E08CEDC6
:1021B00095E00E94F904CFCF88E10E94E902892BC3
:1021C00021F48091480381111AC08AE10E94E9023A
:1021D000892BD1F18CE10E94E902892B09F45DC0C1
:1021E0008EE10E94E902892B09F073CC8091E30211
:1021F000882309F44DC081508093E30249C020E058
:1022000030E040E05FE360914403709145038091CA
:102210004603909147030E94D6166B017C0120E093
:1022200030E040E851E40E944217181644F0C09292
:102230004403D0924503E0924603F09247036CE3D7
:1022400070E080ED97E0B5CF80914803882311F2CC
:1022500020E030E040E05FE360914403709145038B
:1022600080914603909147030E94D5166B017C0133
:1022700020E030E040E05FE30E949A1887FD08C04C
:10228000C0924403D0924503E0924603F092470384
:102290006CE370E080EB94E08CCF8091E3028F30B0
:1022A00070F68F5F8093E302CACF20E030E040E811
:1022B0005DE36091440370914503809146039091E2
:1022C00047030E949F1820E030E04FE753E40E944C
:1022D0009F180E94B917162F61E085E00E94400305
:1022E0001111FBC060E085E00E94120320E030E0A5
:1022F0004AE754E4C301B2010E949F180E94B91733
:10230000C0901C03D0901D03E0901E03F0901F03AB
:10231000DC01CB018C0D9D1DAE1DBF1D80931C03E8
:1023200090931D03A0931E03B0931F03809044035A
:1023300090904503A0904603B0904703A5019401F7
:10234000C301B2010E949F1820E030E041E655E44D
:102350000E9447179B01AC0160910003709101033B
:1023600080910203909103030E94D61660930003AC
:1023700070930103809302039093030320E030E005
:10238000A901C501B4010E94421720E030E0A90173
:1023900018160CF061C027E635E545E851E4C501A3
:1023A000B4010E949F186B017C016091E30270E010
:1023B00090E080E00E94EA1720E030E048EC52E430
:1023C0000E9447176BA37CA38DA39EA320E030E05F
:1023D00040EE50E4C501B4010E94421787FF54C18A
:1023E0002DEC3CEC4CEC5DE3C701B6010E949F185C
:1023F00020E030E040E650E40E94D6164B015C013C
:1024000026E636E646EE5FE3C701B6010E949F1856
:102410002BA13CA14DA15EA10E949F189B01AC0184
:10242000C501B4010E94D61620911102309112020A
:1024300040911302509114020E949F1820E030E056
:1024400040EA50E40E949F1820E030E04AE754E45C
:102450000E9447179B01AC01C301B2010E949F1863
:1024600020E030E040E752E40E94471720913C030F
:1024700030913D0340913E0350913F030E94D61698
:1024800060933C0370933D0380933E0390933F031E
:10249000C0901502D0901602E0901702F09018023A
:1024A000A70196010E949A1887FD9BCB60E971E015
:1024B00084EC99E00E94F90420E030E046E953E41E
:1024C000C701B6010E94D6166093150270931602DA
:1024D000809317029093180284CB1F3F11F461E0A0
:1024E00002CFE2E6F3E08491EFEFE80FE23108F08B
:1024F000C8C0F0E08827E058FD4E8F4F0C942C198F
:10250000921297129C12A812B4124113C012C81250
:10251000D012DC12E812F4120513111341131D132B
:102520002913351384B5806884BD17BDDFCE84B50B
:10253000806284BD18BDDACE80918000806880936F
:102540008000812F90E09093890080938800CECE08
:1025500080918000806280938000812F90E0909332
:102560008B0080938A00C2CE809180008860809327
:102570008000812F90E090938D0080938C00B6CEE8
:102580008091B00080688093B0001093B300AECE0D
:102590008091B00080628093B0001093B400A6CE0A
:1025A00080919000806880939000812F90E09093BC
:1025B0009900809398009ACE8091900080628093D9
:1025C0009000812F90E090939B0080939A008ECE94
:1025D00080919000886080939000812F90E090938C
:1025E0009D0080939C0082CE8091A00080688093A3
:1025F000A0008091A0008F7B8093A000812F90E0AD
:102600009093A9008093A80071CE8091A000806271
:102610008093A000812F90E09093AB008093AA005C
:1026200065CE8091A00088608093A000812F90E00B
:102630009093AD008093AC0059CE809120018068CA
:1026400080932001812F90E09093290180932801AD
:102650004DCE80912001806280932001812F90E0F7
:1026600090932B0180932A0141CE809120018860B4
:1026700080932001812F90E090932D0180932C0175
:1026800035CE17FD2CCF2ECE2DEC3CEC4CE45EE38A
:10269000C701B6010E949F1820E030E040E650E4F8
:1026A0000E94D6164B015C0126E636E646E65FE35D
:1026B000ABCE8BE292E0E3CACF92DF92FF920F9310
:1026C0001F93CF93DF931092E7021092E6023DE151
:1026D000C32E32E0D32ED092E502C092E40288E00D
:1026E0008093E802CFEFC093E90289E08093EA0289
:1026F0004AE0F42EF092EB020BE00093EC021CE0B7
:102700001093ED02DDE0D093EE021092EF021092F2
:10271000F0021092F1021092F2021092F30261E0C4
:1027200084EE92E00E9409081092070310920603BB
:10273000D0920503C092040384E280930803C093FF
:10274000090386E280930A03F0920B0300930C03C3
:1027500010930D03D0930E0310920F0310921003E9
:1027600010921103109212031092130361E084E09F
:1027700093E00E9409081092270310922603D0923A
:102780002503C09224038EE280932803C09329037B
:1027900080E380932A03F0922B0300932C03109381
:1027A0002D03D0932E0310922F031092300310921A
:1027B0003103109232031092330361E084E293E01C
:1027C0000E9409088091C5028033D0F491E0980FEF
:1027D0009093C5028093E70390E0FC01EE0FFF1F8A
:1027E000E80FF91FE95AFC4F88EB9BE09283818345
:1027F000DF91CF911F910F91FF90DF90CF900895BF
:10280000C093E703F5CFEF920F931F93CF93DF931E
:10281000E80134E047FD34E1042E000C550B57FF6E
:1028200003C0519541955109E32E022F242FAE018B
:102830000E942114CE01DF91CF911F910F91EF9053
:1028400008958F929F92AF92BF92CF92DF92EF92B4
:10285000FF920F931F93CF93DF9300D000D000D04F
:10286000CDB7DEB76A01F22EB02E102FFBE3AF2EEC
:10287000A01608F41BE31F5F012F27E0AE014F5F96
:102880005F4F0E949A15BC018981982F99709130F1
:1028900009F44EC09BE2E1FC04C09E2D9170E0FC67
:1028A00049C05E2D5071E82FE87083FF55C084E069
:1028B000911101C083E0EF2DE81B8F1508F0E0E0D7
:1028C000D6018E2F20E25523C9F1992329F0D60194
:1028D0009C93C60101966C0196012D5F3F4FE2FE6D
:1028E00033C08EE4D6018C9391E411969C9311979A
:1028F00012968C93D9018E2F90E281112AC0E20F9B
:10290000F32FF11D10828EEF9FEF29960FB6F894EA
:10291000DEBF0FBECDBFDF91CF911F910F91FF9012
:10292000EF90DF90CF90BF90AF909F908F900895E1
:102930009DE2B7CF90E2B5CF2D9381508111FCCFAE
:10294000CE0ED11CE0E0C1CF8EE6D6018C9391E68D
:10295000CCCF9D938150D1CF482F447082FF3DC092
:1029600084E0911101C083E08F1510F4EF2DE81B76
:10297000D6018E2F20E2552309F1992329F0D601A3
:102980009C93C60101966C0196012D5F3F4FE2FEBC
:102990001BC089E4D6018C938EE411968C93119719
:1029A00086E412968C93D9018E2F90E2882309F445
:1029B000A6CF9D938150FACF2D9381508111FCCFEA
:1029C000CE0ED11CE0E0D9CF89E6D6018C938EE6FD
:1029D00011968C93119786E6E4CF9B0177FF02C096
:1029E00030E020E0A1E0B0E0911102C0B0E0A0E052
:1029F000F9013196AE0FBF1F8B2C912CBB2009F42F
:102A000061C05401EFEFAE1ABE0AAA0DBB1DFA1643
:102A10001B0619F014F04F2D4A1B511188C0E3FC1E
:102A200059C07601A42FB0E2A1114FC0C40ED11C31
:102A3000992309F45BC040E0D6011196F60190831A
:102A40006D01552309F448C0012F060F9A81582FB4
:102A5000507184FF03C0913309F4015010160CF03B
:102A600047C0093008F008E0EEE2FE2E5B01A01A34
:102A7000B10885019194819491082F3F320729F480
:102A8000D601FC92F60131966F016217730794F13B
:102A9000021713077CF5DB01A21BB30BAA24A39436
:102AA000B12CAC0EBD1EAA0DBB1D11968C912150F0
:102AB0003109D601119628153905F4F0F601808305
:102AC0006D01DBCFB12CA12CA0CFF701B1937F0119
:102AD000A150AACF9111B0CFD601942F50E302C0DC
:102AE0005D9391509111FCCFC40ED11C40E0ACCF4E
:102AF00001E0BACF80E3DBCF6217730731F496337E
:102B000088F4953311F4552369F0F6018083FD01B3
:102B1000842F90E2811108C0A40FB11D1C9290E097
:102B200080E0F3CE81E3F1CF91938150F3CF911107
:102B300083CF8ACF283008F027E03327DA01990FB6
:102B4000311D87FD916000966105710539F4326091
:102B50002E5F3D9330E32A95E1F708959F3F30F0D3
:102B600080387105610509F03C5F3C5F3D93913011
:102B700008F08068911DDF93CF931F930F93FF920E
:102B8000EF92192F987F9695E92F96959695E90FD4
:102B9000FF27EE51FE4F99273327EE24FF24A7018C
:102BA000E70105900894079428F4360FE71EF81EF5
:102BB000491F511D660F771F881F991F0694A1F7A3
:102BC0000590079428F4E70EF81E491F561FC11DF3
:102BD000770F881F991F661F0694A1F70590079429
:102BE00028F4F80E491F561FC71FD11D880F991FC3
:102BF000661F771F0694A1F70590079420F4490FEC
:102C0000561FC71FD81F990F661F771F881F06946E
:102C1000A9F784911095177041F0D695C7955795EF
:102C20004795F794E7941A95C1F7E8E8F1E06894BE
:102C30001590159135916591959105907FE2739569
:102C4000E118F10A430B560BC90BD009C0F7E10C90
:102C5000F11E431F561FC91FD01D7EF4703311F49F
:102C60008A95E6CFE894015030F0080F0AF4002767
:102C7000021708F4202F2395022F7A3328F079E3E6
:102C80007D932A95E9F710C07D932A9589F60694DD
:102C900097956795379517951794E118F10A430BA7
:102CA000560BC90BD00998F023957E9173957A3312
:102CB00008F070E37C932013B8F77E9170617D93E8
:102CC00030F0839571E37D9370E32A95E1F7112449
:102CD000EF90FF900F911F91CF91DF91992787FD82
:102CE00090950895052E97FB1EF400940E94891676
:102CF00057FD07D00E94A41607FC03D04EF40C9495
:102D0000891650954095309521953F4F4F4F5F4F15
:102D1000089590958095709561957F4F8F4F9F4F47
:102D200008950E94C616A59F900DB49F900DA49F74
:102D3000800D911D11240895B7FF0C9491160E94E7
:102D40009116821B930B0895A1E21A2EAA1BBB1B9E
:102D5000FD010DC0AA1FBB1FEE1FFF1FA217B30767
:102D6000E407F50720F0A21BB30BE40BF50B661F7D
:102D7000771F881F991F1A9469F760957095809541
:102D800090959B01AC01BD01CF010895A29FB001B8
:102D9000B39FC001A39F700D811D1124911DB29F8F
:102DA000700D811D1124911D08955058BB27AA272D
:102DB0000E94ED160C9460180E94521838F00E9480
:102DC000591820F039F49F3F19F426F40C944F1849
:102DD0000EF4E095E7FB0C944918E92F0E94711856
:102DE00058F3BA17620773078407950720F079F440
:102DF000A6F50C9493180EF4E0950B2EBA2FA02D87
:102E00000B01B90190010C01CA01A0011124FF2797
:102E1000591B99F0593F50F4503E68F11A16F04092
:102E2000A22F232F342F4427585FF3CF4695379591
:102E30002795A795F0405395C9F77EF41F16BA0B56
:102E4000620B730B840BBAF09150A1F0FF0FBB1F04
:102E5000661F771F881FC2F70EC0BA0F621F731F4D
:102E6000841F48F4879577956795B795F7959E3FAA
:102E700008F0B0CF9395880F08F09927EE0F97953B
:102E8000879508950E94251808F481E008950E940E
:102E90005B170C9460180E94591858F00E94521841
:102EA00040F029F45F3F29F00C94491851110C941B
:102EB00094180C944F180E94711868F39923B1F379
:102EC000552391F3951B550BBB27AA276217730750
:102ED000840738F09F5F5F4F220F331F441FAA1FE4
:102EE000A9F335D00E2E3AF0E0E832D091505040A0
:102EF000E695001CCAF72BD0FE2F29D0660F771F4E
:102F0000881FBB1F261737074807AB07B0E809F033
:102F1000BB0B802DBF01FF2793585F4F3AF09E3FB8
:102F2000510578F00C9449180C9494185F3FE4F321
:102F3000983ED4F3869577956795B795F7959F5FFB
:102F4000C9F7880F911D9695879597F90895E1E047
:102F5000660F771F881FBB1F621773078407BA07A6
:102F600020F0621B730B840BBA0BEE1F88F7E09501
:102F700008950E94791888F09F5798F0B92F9927E3
:102F8000B751B0F0E1F0660F771F881F991F1AF054
:102F9000BA95C9F714C0B13091F00E949318B1E00E
:102FA00008950C949318672F782F8827B85F39F00D
:102FB000B93FCCF3869577956795B395D9F73EF4ED
:102FC00090958095709561957F4F8F4F9F4F089595
:102FD000E89409C097FB3EF49095809570956195B3
:102FE0007F4F8F4F9F4F9923A9F0F92F96E9BB2769
:102FF0009395F695879577956795B795F111F8CFE5
:10300000FAF4BB0F11F460FF1BC06F5F7F4F8F4F4F
:103010009F4F16C0882311F096E911C0772321F045
:103020009EE8872F762F05C0662371F096E8862FDD
:1030300070E060E02AF09A95660F771F881FDAF734
:10304000880F9695879597F90895990F0008550F61
:10305000AA0BE0E8FEEF16161706E807F907C0F01E
:1030600012161306E407F50798F0621B730B840B26
:10307000950B39F40A2661F0232B242B252B21F400
:1030800008950A2609F4A140A6958FEF811D811DA0
:10309000089597F99F6780E870E060E008959FEFDA
:1030A00080EC089500240A941616170618060906DF
:1030B000089500240A9412161306140605060895AE
:1030C000092E0394000C11F4882352F0BB0F40F436
:1030D000BF2B11F460FF04C06F5F7F4F8F4F9F4F76
:1030E000089557FD9058440F551F59F05F3F71F0F8
:1030F0004795880F97FB991F61F09F3F79F087955F
:103100000895121613061406551FF2CF4695F1DFE7
:1031100008C0161617061806991FF1CF8695710577
:10312000610508940895E894BB2766277727CB01AB
:1031300097F908950E94251808F48FEF08950E94CA
:10314000B2180C9460180E94521838F00E94591856
:1031500020F0952311F00C9449180C944F18112469
:103160000C9494180E94711870F3959FC1F3950FF9
:1031700050E0551F629FF001729FBB27F00DB11DFB
:10318000639FAA27F00DB11DAA1F649F6627B00D8B
:10319000A11D661F829F2227B00DA11D621F739F74
:1031A000B00DA11D621F839FA00D611D221F749F82
:1031B0003327A00D611D231F849F600D211D822FC9
:1031C000762F6A2F11249F5750409AF0F1F08823F0
:1031D0004AF0EE0FFF1FBB1F661F771F881F91501D
:1031E0005040A9F79E3F510580F00C9449180C946B
:1031F00094185F3FE4F3983ED4F3869577956795EE
:10320000B795F795E7959F5FC1F7FE2B880F911D46
:103210009695879597F90895991B79E004C0991FB1
:10322000961708F0961B881F7A95C9F78095089520
:1032300097FB072E16F4009407D077FD09D00E9463
:10324000341907FC05D03EF4909581959F4F089561
:10325000709561957F4F0895EE0FFF1F881F8BBFFC
:103260000790F691E02D1994AA1BBB1B51E107C0F2
:10327000AA1FBB1FA617B70710F0A61BB70B881F06
:10328000991F5A95A9F780959095BC01CD01089595
:103290000F931F93CF93DF93CDB7DEB72E970FB663
:1032A000F894DEBF0FBECDBF0E891F8986E08C83E8
:1032B0001A8309838FEF9FE79E838D83AE01465E5D
:1032C0005F4F688D798DCE0101960E9478192F810C
:1032D0003885020F131FF80110822E960FB6F8944E
:1032E000DEBF0FBECDBFDF91CF911F910F9108952B
:1032F0002F923F924F925F926F927F928F929F9206
:10330000AF92BF92CF92DF92EF92FF920F931F93F3
:10331000CF93DF9300D000D000D01F921F92CDB783
:10332000DEB77C013B018A01FC0117821682838192
:1033300081FFDDC1CE0101965C01F7019381F301AC
:1033400093FD859193FF81913F01882309F453C137
:10335000853239F493FD859193FF81913F01853248
:1033600029F4B70190E00E94901BE7CF912C212C0B
:10337000312CFFE1F31538F08B3211F190F48032EB
:1033800009F1833229F137FC3CC020ED280F2A30A7
:1033900050F536FE20C08AE0989E200D1124922E12
:1033A00006C08D3291F0803371F7689430F8F301E4
:1033B00093FD859193FF81913F018111DACF21C067
:1033C000689431F8689432F8F2CF689433F8EFCF0C
:1033D000689434F8ECCFEAE02E9E200D1124222EC2
:1033E000689435F8E4CF8E3229F436FC04C1689431
:1033F00036F8DDCF8C3619F4689437F8D8CF883694
:10340000B1F2982F9F7D95549330E0F08336A1F16F
:103410008337C1F1833509F063C02801F2E04F0E14
:10342000511CF801C080D180692D70E036FC02C0CB
:103430006FEF7FEFC6010E947A1B4C01689437F84A
:1034400082010AC00C5F1F4FFFE3F9838824839435
:10345000912C6501E89437F833FE2DC0522C81146D
:10346000910471F5552009F468CFB70180E290E02E
:103470000E94901B5A94F6CFF801808189830E5FD9
:103480001F4FE4CF2801F2E04F0E511CF801C0801D
:10349000D180692D70E036FC02C06FEF7FEFC6016E
:1034A0000E94851B4C018201D5CFB70180E290E0DC
:1034B0000E94901B2A942814190409F0B0F7CECF6B
:1034C000F60137FC859137FE81916F01B70190E0DD
:1034D0000E94901B51105A94F1E08F1A9108BFCFAF
:1034E000843619F0893609F077C0F80137FE6BC0D1
:1034F00060817181828193810C5F1F4FF32DFF7674
:103500003F2E97FF09C090958095709561957F4FEC
:103510008F4F9F4F689437F82AE030E0A5010E9452
:10352000C01BC82ECA188C2C432C36FE0CC0E89445
:1035300040F8C91440F434FE05C032FC03C0F32D3A
:10354000FE7E4F2E892C44FEAAC0FE01EC0DF11D1B
:103550008081803309F09CC0242D297E422E842D49
:103560008870582E43FCAAC040FEA4C09C2C821434
:1035700018F42C0C922C981844FEA6C0B70180E3D6
:1035800090E00E94901B42FE09C088E790E041FE57
:1035900002C088E590E0B7010E94901BC91408F4AE
:1035A0009FC0CA94D12C9FEFC91AD90ACA0CDB1C40
:1035B000F60182916F01B70190E00E94901BAC145C
:1035C000BD04B1F74FCF60817181072E000C880BCD
:1035D000990B0E5F1F4F92CFD32CE894D4F82AE0BA
:1035E00030E08537E1F1232D297FD22E8F36A9F1E6
:1035F000F0F4883551F1F701868197812B960FB64B
:10360000F894DEBF0FBECDBFDF91CF911F910F9118
:10361000FF90EF90DF90CF90BF90AF909F908F90F2
:103620007F906F905F904F903F902F9008958037DC
:1036300049F0883701F7D4FE02C06894D2F820E13F
:1036400030E00DC06894D4F8F6CF34FE03C0822F6A
:103650008660D82E20E132E002C028E030E0F80198
:10366000D7FE0FC060817181828193810C5F1F4FF3
:10367000A5010E94C01BC82ECA183D2CE89437F83B
:1036800052CF6081718190E080E00E5F1F4FF0CFDC
:1036900042FC02C0839463CF8394839460CF842DD3
:1036A000867809F45CCFF6CFB70180E290E00E9403
:1036B000901B83948214C0F3512C5ECF522C581867
:1036C000821408F459CFF8CF842D867809F466CF98
:1036D0008BE241FE80E247FC8DE2B70190E05CCFD7
:1036E000B70180E390E00E94901B9A9457CF8FEF30
:1036F0009FEF84CFFC010590615070400110D8F716
:10370000809590958E0F9F1F0895FC016150704029
:1037100001900110D8F7809590958E0F9F1F089506
:103720000F931F93CF93DF93182F092FEB018B81FA
:1037300081FD09C01FEF0FEF812F902FDF91CF91F7
:103740001F910F91089582FF14C02E813F818C81BB
:103750009D81281739073CF4E881F981CF01019652
:103760009983888310838E819F8101969F838E83A6
:10377000E3CFE885F985812F1995892BA1F3DACF5D
:10378000FA01AA27283051F1203181F1E8946F9392
:103790006E7F6E5F7F4F8F4F9F4FAF4FB1E03ED038
:1037A000B4E03CD0670F781F891F9A1FA11D680FD6
:1037B000791F8A1F911DA11D6A0F711D811D911D09
:1037C000A11D20D009F468943F912AE0269F11247E
:1037D0003019305D3193DEF6CF010895462F4770E2
:1037E000405D4193B3E00FD0C9F7F6CF462F4F703D
:1037F000405D4A3318F0495D31FD4052419302D09B
:10380000A9F7EACFB4E0A695979587957795679540
:10381000BA95C9F700976105710508959B01AC0140
:103820000A2E06945795479537952795BA95C9F767
:10383000620F731F841F951FA01D0895F894FFCF7A
:10384000FF0D040D040D040D040D040D040D040DF5
:103850000400008C420000964300000000EB070EBD
:1038600004F604F5041B1D1F2123254D4152434836
:10387000410050415241444F0043414D494E414463
:103880004F5241204553504500496E696369616E4E
:10389000646F2E2E2E0056454C2000206B6D2F6835
:1038A0002000494E43202532752525202025730010
:1038B0005449454D504F202530326C753A253032F1
:1038C0006C753A2530326C75004449535420002001
:1038D0006B6D20004B43414C200020202020200015
:0838E00046414C54414E20000A
:00000001FF
